:020000040800F2
:10000000180700202902000827120008A311000881
:10001000251200081F040008591400080000000001
:100020000000000000000000000000002B1200088B
:10003000A904000800000000291200082D12000881
:10004000430200084302000843020008430200087C
:10005000430200084302000843020008430200086C
:10006000430200084302000843020008430200085C
:10007000430200084302000843020008430200084C
:10008000210400084302000843020008430200085C
:10009000430200084302000843020008430200082C
:1000A000430200084302000843020008430200081C
:1000B000430200084302000843020008430200080C
:1000C00043020008430200084302000843020008FC
:1000D00043020008430200084302000843020008EC
:1000E00043020008430200084302000843020008DC
:1000F00043020008430200084302000843020008CC
:1001000043020008430200084302000843020008BB
:1001100043020008430200084302000843020008AB
:10012000430200084302000843020008430200089B
:10013000430200084302000843020008430200088B
:10014000430200084302000843020008430200087B
:10015000430200084302000843020008430200086B
:10016000430200084302000843020008430200085B
:100170004302000843020008430200080000000098
:10018000430200084302000800F002F800F03CF8C7
:100190000AA090E8000C82448344AAF10107DA45E2
:1001A00001D100F031F8AFF2090EBAE80F0013F0F8
:1001B000010F18BFFB1A43F001031847801300001A
:1001C000A0130000103A24BF78C878C1FAD85207AB
:1001D00024BF30C830C144BF04680C6070470000C1
:1001E0000023002400250026103A28BF78C1FBD840
:1001F000520728BF30C148BF0B6070471FB501F0E0
:1002000081F91FBD10B510BD00F0CFF81146FFF702
:10021000F5FF01F033F900F0EDF803B4FFF7F2FF5A
:1002200003BC00F0F5F80000094880470948004782
:10023000FEE7FEE7FEE7FEE7FEE7FEE7FEE7FEE796
:10024000FEE7FEE704480549054A064B70470000F3
:10025000C5120008890100081801002018070020B5
:10026000180300201803002053EA020C00F06980F4
:100270002DE9F04B4FF00006002B1FBFB3FA83F5BA
:1002800003FA05F424FA05F65E4012BF1643B2FAEB
:1002900082F502FA05F4C5F120051EBF22FA05FC1D
:1002A00044EA0C04203556EA044C4FEA144418BFC3
:1002B000641C4FF000084FF00009904271EB030CF2
:1002C00039D3002919BFB1FA81F701FA07F6B0FA5C
:1002D00080F700FA07F6C7F120071EBF20FA07FCD7
:1002E00046EA0C062037B6FBF4FCA7EB0507103FE7
:1002F00007F01F0BCBF120060CFA0BFB2CFA06F6CD
:1003000044BFB3460026202FA4BF5E464FF0000B2B
:100310005BEA060C08BF4FF0010B19EB0B09ABFBB6
:10032000027C48EB0608C01B06FB02CC0BFB03CC8F
:1003300071EB0C01C1E70B46024641464846BDE859
:10034000F08B13B54FF000004FF00001AFF30080C9
:10035000BDE81C4070474FF0000200B513469446BC
:100360009646203922BFA0E80C50A0E80C50B1F10D
:100370002001BFF4F7AF090728BFA0E80C5048BF21
:100380000CC05DF804EB890028BF40F8042B08BFBF
:10039000704748BF20F8022B11F0804F18BF00F8BB
:1003A000012B7047704770477047754600F02CF876
:1003B000AE4605006946534620F00700854618B052
:1003C00020B5FFF73FFFBDE820404FF000064FF09B
:1003D00000074FF000084FF0000B21F00701AC467A
:1003E000ACE8C009ACE8C009ACE8C009ACE8C00999
:1003F0008D46704710B50446AFF300802046BDE837
:100400001040FFF70ABF000000487047B40000200A
:1004100001491820ABBEFEE7260002007047FEE748
:10042000014800F045B8000054000020016818237E
:10043000CAB2103AB2FBF3F2054B6FF30901032A7B
:100440009B5CC36500D9091D8165084670470000A3
:100450001A15000810B5014600208B698A6A4FF012
:10046000C07453B1B3F5005F15D072B1012A0CD03E
:10047000022A0AD0032A09D104E01AB1012A06D0BF
:10048000022A03D1C96AC90100D5012010BDC96A79
:10049000A142FAD010BD002AF7D0012AF2D0022AD8
:1004A000F3D0032AF3D010BD704772B6FEE7000008
:1004B0002DE9F84304464FF00009CDF80090634859
:1004C0004FF41651A56D0068B0FBF1F72E6894F853
:1004D0005C10082000FA01F131420FD021680A684F
:1004E00052070BD50A6822F004020A6094F85C10E7
:1004F0008840A860606D40F00100606594F85C1071
:100500004FF0010808FA01F0304208D0216849692B
:10051000090604D5A860606D40F00200606594F89B
:100520005C1004208840304208D02168096889079F
:1005300004D5A860606D40F00400606594F85C101C
:1005400010208840304218D021680968090714D566
:10055000A86020680168490304D50068000308D535
:10056000A16C07E00168C90503D4016821F0080106
:100570000160216C09B12046884794F85C10202066
:100580008840304231D021680968C9062DD5A8605D
:1005900094F8350005282068016806D0490347D53E
:1005A000006800031DD4616C1CE021F0160101609D
:1005B0002068416921F080014161206C08B9A06C7C
:1005C00020B12068016821F00801016094F85C10F6
:1005D0003F208840A86084F8358084F83490216DED
:1005E0001FE0E16B09B120468847606D00282BD0E1
:1005F000606DC00714D0052084F8350020680168BC
:1006000021F0010101600098401C0090B84203D81D
:1006100020680068C007F6D184F8358084F83490EB
:10062000E16C002910D001B02046BDE8F043084736
:100630000168C905D5D4016821F01001016084F872
:10064000358084F83490CCE7BDE8F8830C000020B6
:100650002DE9F041044600F075F906465CB1022030
:1006600084F83500002584F834502068016821F0B2
:10067000010101600DE00120BDE8F08100F062F9A8
:10068000801B052805D920206065032084F83500EB
:10069000F2E720680068C007F0D12268116820489E
:1006A0000140D4E901031843D4E903363343184326
:1006B00063691843A3691843E3691843236A18431D
:1006C0000843616A042903D1D4E90B131943084391
:1006D000106020684069666A20F0070130460E43CA
:1006E000012704280CD1A06A0643E06A40B12046E5
:1006F000FFF7B0FE20B14020606584F83570BAE79E
:10070000206846612046FFF791FE94F85C203F2167
:1007100091408160656584F835700020ACE7000089
:100720003F8010F070B5044600F00CF90546601CDF
:1007300002D004480078044400F004F9401BA042B1
:10074000FAD370BD000000202DE9F84FDFF8BCA1FE
:100750000022012503264FF00F090AF1040BAAF12C
:10076000040E00BF0B6805FA02F42340A34270D1C7
:100770000F7907F00307012F01D0022F16D18768E8
:100780004FEA420806FA08FC27EA0C07D1F80CC029
:100790000CFA08FC4CEA070CC0F808C04768A743ED
:1007A0000C79C4F3001494403C4344600C79E44356
:1007B000A4070AD0C4684FEA420C06FA0CF7BC43FF
:1007C0008F6807FA0CF72743C7600C7904F003041D
:1007D000022C12D1D40800EB840CDCF8204057071F
:1007E000FF0E09FA07F824EA0804D1F8108008FA85
:1007F00007F848EA0408CCF8208004684FEA420C65
:1008000006FA0CF7BC430F7907F0030707FA0CF759
:10081000274307604C6814F4403F70D03C4C276875
:1008200047F480472760246822F0030704F48044DB
:100830000094384C07EB040CDCF8084897074FEAA3
:10084000177809FA08F7BC43334FB84202D10027A2
:1008500024E054E0314FB84201D101271EE0304F6F
:10086000B84201D1022719E02E4FB84201D1032727
:1008700014E02D4FB84201D104270FE02B4FB842AE
:1008800001D105270AE02A4FB84201D1062705E029
:10089000284FB84201D1072700E0082707FA08F7D8
:1008A0002743CCF80878DAF800405746D1F804C05E
:1008B0009C435FEACC2C00D51C433C60DBF8004035
:1008C0005F46D1F804C09C435FEA8C2C00D51C43E2
:1008D0003C60DEF800407746D1F804C09C435FEAF4
:1008E0008C3C00D51C433C60084F083F3C68D1F865
:1008F00004C09C435FEACC3C00D51C433C60521CC6
:10090000102AFFF42FAFBDE8F88F0000083C01402B
:100910004438024000300140000002400004024020
:1009200000080240000C0240001002400014024087
:1009300000180240001C02400AB18161704709049E
:10094000FBE70000014880687047000000000020BD
:1009500002488168027811448160704700000020DD
:100960000B4810B5016841F400710160016841F461
:1009700080610160016841F480710160032000F032
:100980006FF80F2000F006F800F024F8002010BDEA
:10099000003C024070B50D4D04464FF47A71287842
:1009A000B1FBF0F00A490968B1FBF0F000F00AFB76
:1009B00048B9102C07D200222146501E00F030F812
:1009C00000206C6070BD012070BD000000000020A0
:1009D0000C0000200A4808B5016841F4804101601C
:1009E000006800F4804000900548001F016841F055
:1009F00080510160006800F08050009008BD000048
:100A000044380240002809DB00F01F020121914018
:100A10004009800000F1E020C0F80011704700009C
:100A2000F0B40E4B1B680C46C3F30223C3F1070559
:100A3000042D00D90425191D072901D2002300E047
:100A4000DB1E012606FA05F1491E214099409E4011
:100A5000761E16403143F0BC00F0FFBC0CED00E008
:100A6000064900F0070208684FF6FF03184040EA05
:100A70000220034A10430860704700000CED00E0BC
:100A80000000FA052DE9F0470E46050065D0DFF8B5
:100A90001481D8F80000F7B200F00700B04207D286
:100AA00088F80070D8F8000000F00700B04254D178
:100AB00028683D4C810712D5400703D5206840F4D3
:100AC000E05020602878000703D5206840F460409B
:100AD00020602068A96820F0F00008432060287892
:100AE000C0072DD0304968680839012812D0022883
:100AF00013D0032811D00968890700292DDA21684D
:100B000021F0030101432160FFF71CFF814641F200
:100B1000883A0EE009688903EFE709688901ECE784
:100B2000FFF710FFA0EB0901514502D90320BDE8F2
:100B3000F0872068696800F00C00B0EB810FEFD1FE
:100B4000D8F80010404601F00701B14207D90770FC
:100B5000006800F00700B04201D00120E7E72878E4
:100B6000400705D52068E96820F4E050084320607C
:100B70002878000706D52068296920F4604040EAFB
:100B8000C100206000F038F82168084AC1F3031161
:100B9000515CC8400649086006480068FFF7FAFE45
:100BA0000020C4E7003C024008380240221500083B
:100BB0000C00002004000020044805490068096872
:100BC000044AC1F38221515CC84070470C000020E8
:100BD00008380240321500080448054900680968D1
:100BE000044AC1F34231515CC84070470C000020F8
:100BF0000838024032150008154810B5006810F09A
:100C00000C02144813D04110042A0FD0082A0ED128
:100C10000F4C241F2268236802F03F025B0207D5B5
:100C20002068C0F38810A0FB010106E0084610BD53
:100C30002168C1F38811A1FB00010023FFF714FB19
:100C40002168C1F30141491C4900B0FBF1F010BD1E
:100C5000083802400024F4002DE9F84F04006ED05B
:100C60002078DFF84C93C007A9F104054AD009F1B8
:100C700004000168C1F38101012908D00068C0F3B4
:100C8000810002280AD1D9F80000400206D5286860
:100C9000800337D560680028E1D033E06068B0F5A4
:100CA000803F10D0B0F5A02F286810D020F48030FD
:100CB0002860286820F4802028606068A8B1FFF7C9
:100CC00041FE06460DE0286840F48030F4E740F429
:100CD00080202860F7E700BFFFF734FE801B642800
:100CE00073D828688003F7D50CE0FFF72BFE064683
:100CF00005E000BFFFF726FE801B6428F0D82868B7
:100D00008003F7D42078DFF8AC8280074FF0000A28
:100D10003ED5A748001D016811F00C0F08D00068EF
:100D2000C0F3810002280BD1D9F80000400207D49B
:100D30002868800716D5E068012800D112E033E169
:100D4000E068B8B10120C8F80000FFF7FBFD0646D7
:100D500005E000BFFFF7F6FD801B0228C0D8286819
:100D60008007F7D52868216920F0F80040EAC10023
:100D700028600DE0C8F800A0FFF7E4FD064604E097
:100D8000FFF7E0FD801B02281FD828688007F7D4F2
:100D90002078000722D5864F87486169703771B186
:100DA00001210160FFF7CEFD064604E0FFF7CAFD12
:100DB000801B022809D838688007F7D50EE0C0F8F4
:100DC00000A0FFF7BFFD064605E082E0FFF7BAFD91
:100DD000801B02287DD838688007F7D42078400728
:100DE00068D5DFF8CCB100270BF13C0BDBF8000035
:100DF000C0000BD4DBF8001041F08051CBF800109C
:100E0000DBF80000012700F0805000906B4E306846
:100E1000C00510D4306840F480703060FFF792FD58
:100E2000009005E0FFF78EFD0099401A022850D887
:100E30003068C005F6D55E4EA0686C3601280FD02C
:100E40000528306810D020F001003060306820F0B4
:100E500004003060A068B8B1FFF774FD00900FE0A7
:100E6000306840F00100F4E740F004003060F7E73C
:100E7000FFF768FD0099411A41F28830814266D837
:100E800030688007F4D50EE0FFF75CFD009007E0C6
:100E9000FFF758FD0099411A41F28830814256D837
:100EA00030688007F4D42FB1DBF8001021F08051B6
:100EB000CBF80010A069C8B33D49091D0968C1F30A
:100EC000810102294AD00228504607D0C8F86000A4
:100ED00000E03CE0FFF736FD04463BE04746C8F83B
:100EE0006000FFF72FFD064605E000BFFFF72AFD73
:100EF000801B02282BD828688001F7D4D4E9070189
:100F00000843A16A2E4A490802EB0141626A41EA9C
:100F10008211084394F82C1040EA0161C9F80010CE
:100F200001203866FFF70EFD044606E03EE000BFF4
:100F3000FFF708FD001B022809D828688001F7D5B3
:100F400034E000BFFFF7FEFC001B022802D903209B
:100F5000BDE8F88F28688001F4D427E00128F7D095
:100F6000D9F80000E26900F4800191421CD1226AA4
:100F700000F03F01914217D147F6C071626A01400B
:100F8000B1EB821F10D1A26A4FF0FF3300F4403161
:100F900003EB5202B1EB024F06D194F82C1000F093
:100FA0007060B0EB016F01D00120D1E70020CFE7E6
:100FB0000438024000004742800E47420070004063
:100FC0000000FFFF10B5401EB0F1807F01D301206B
:100FD00010BD4FF0E02460610F21601700F03DFA72
:100FE0000020A06107202061002010BD70B5040022
:100FF00004D094F83D00002510B106E0012070BD3A
:1010000084F83C50204600F023F8242084F83D006A
:101010002068C16821F40051C160204600F05AF9EF
:101020002068016921F4904101612068416921F043
:101030002A0141612068C16841F40051C160256402
:10104000202084F83D0084F83E00002070BD0000A0
:1010500070B586B0064614216846FFF77CF91F4933
:101060003068884238D11E480025016841F40031BB
:101070000160006800F400300590194810380168DC
:1010800041F0010101600068694600F0010005902F
:101090000C2000900220CDE90105032003900720D9
:1010A00004901048FFF750FB104C0F4820604FF0A1
:1010B0000060C4E901054014C4E903508010656173
:1010C000C4E90650256220466562FFF7C1FA08B1FF
:1010D000FFF7EBF9B463A66306B070BD00440040AF
:1010E0004038024000000240886002405400002066
:1010F0002DE9F843044690F83D001F4616460D467C
:1011000020284CD1C5B1BEB194F83C00012846D08E
:10111000012084F83C004FF00008C4F840802120F2
:1011200084F83D00FFF70EFCA6848146E684A068A3
:10113000B0F5805F03D004E00120BDE8F8832069AA
:1011400028B12E465FF0000584F83C800EE00026B2
:10115000FAE78021204600F043F9A0B9AEB116F8B5
:10116000010B21684860E08C401EE084E08C4B4617
:101170004FF0000200970028EBD14FF040012046CD
:1011800000F02EF930B10320D7E735F8020BC0F399
:101190000800E6E7202084F83D000020CDE702208B
:1011A000CBE7FEE7F0B587B014216846FFF7D3F828
:1011B00019480024016841F080010160016801F0D4
:1011C00080010591016841F001010160016801F0B1
:1011D00001010591016841F00801016000680F4FAD
:1011E00000F008004FF47046059000223146384662
:1011F000FFF7A2FB0125CDE9005469460848029497
:10120000FFF7A2FA0096CDE90154694638460394E7
:10121000FFF79AFA07B0F0BD30380240000C0240E8
:1012200000000240FEE7FEE770477047FFF790BB03
:1012300030B593B030216846FFF78DF814210CA823
:10124000FFF789F81D480025016841F080510160D1
:10125000006800F0805011901948016841F4804105
:1012600001600068022400F4804011900120009089
:10127000000401908001CDE9064008AA0420A821BD
:1012800082E813000B906846FFF7E6FC08B172B6DF
:10129000FEE70CA90F2081E831004FF4A0500F9019
:1012A0004FF48050109005210CA8FFF7EBFB0028AD
:1012B00001D072B6FEE713B030BD000040380240E6
:1012C000007000400248016841F4700101607047FD
:1012D00088ED00E070B5044600680169E26821F419
:1012E0004051114301612169A068E26908436169C5
:1012F000114308432168CA6849F20C639A430243C8
:10130000CA6020684169A26921F4407111434161BA
:1013100031492068884202D03049884202D1FFF723
:101320005BFC01E0FFF748FCE2690023192164251A
:101330003226B2F5004F626828D0A0FB0101930F5E
:101340009200FEF791FF0146B0FBF5F06FF0180236
:10135000504301EB800006EB0010B0FBF5F000F00D
:10136000F002B1FBF5F002EB0012B1FBF5F06FF00B
:101370001803584301EB800006EB0010B0FBF5F0BA
:1013800000F00F0021681044886070BDA0FB0101CF
:1013900092185B41FEF768FF0146B0FBF5F00201D1
:1013A000B1FBF5F06FF01803584301EB800006EB3A
:1013B000C000B0FBF5F000F0F80002EB4002B1FB1A
:1013C000F5F0584301EB800006EBC000B0FBF5F0F0
:1013D00000F00700D6E700000010014000140140B3
:1013E0002DE9F041984617460E460446069D27E033
:1013F000681C25D02DB1FFF7A5FAA0EB0800A84284
:101400001ED920680C3050E8001F21F4D07140E84C
:101410000012002AF5D12068143050E8001F21F096
:10142000010140E80012002AF5D1202084F83D0097
:1014300084F83E00002084F83C000320BDE8F081E1
:101440002068006836EA000004D00020B842CFD0FF
:101450000020F3E70120F9E7FEE70907090E00285D
:1014600004DB00F1E02080F80014704700F00F006A
:1014700000F1E02080F8141D704700001FB5FFF751
:101480006FFAFFF7D5FEFFF78DFE1A4800240168BA
:1014900041F4001101600068224600F4001003903E
:1014A00021461020FFF7BCFA1020FFF7ABFA1348D3
:1014B000114901604FF4E131C0E901140C21C4600D
:1014C000C0E904418461C461FFF790FD08B172B6C0
:1014D000FEE70B4A4FF4FA7407CA8DE807000123B0
:1014E0000A2269460548FFF703FE2046FFF71AF96E
:1014F000F5E70000303802400044004010000020B2
:10150000101500084FF04070E1EE100A704700001F
:1015100068656C6C6F0D0A0000000006101600066E
:10152000101600000000000000000102030406077E
:101530000809000000000102030400005C15000817
:101540000000002010000000C40100086C15000815
:101550001000002008070000E00100080100000062
:0C15600010000000000000000024F40057
:040000050800018965
:00000001FF
