:020000040800F2
:10000000880F0020310200084F2B00084927000804
:100010004D2B000899060008C545000800000000A7
:100020000000000000000000000000005F2B00083E
:10003000EF070008000000005D2B0008612B00089E
:100040004B0200084B0200084B0200084B0200085C
:100050004B0200084B0200084B0200084B0200084C
:100060004B0200084B0200084B0200084B0200083C
:100070004B0200084B0200084B0200084B0200082C
:100080004B0200084B0200084B0200084B0200081C
:100090004B0200084B0200084B0200084B0200080C
:1000A0004B0200084B0200084B0200084B020008FC
:1000B0004B0200084B0200084B0200084B020008EC
:1000C0004B0200084B0200084B0200084B020008DC
:1000D0004B0200084B0200084B0200084B020008CC
:1000E0004B0200084B0200084B0200084B020008BC
:1000F0004B0200084B0200084B0200084B020008AC
:100100004B0200084B0200084B0200084B0200089B
:100110004B0200084B0200084B0200084B0200088B
:100120004B0200084B0200084B0200084B0200087B
:100130004B0200084B0200084B0200084B0200086B
:100140004B0200084B0200084B020008512B00082C
:100150004B0200084B0200084B0200084B0200084B
:100160004B0200084B0200084B0200084B0200083B
:100170004B0200084B0200084B0200080000000080
:100180004B0200084B02000800F002F800F040F8B3
:100190000AA090E8000C82448344AAF10107DA45E2
:1001A00001D100F035F8AFF2090EBAE80F0013F0F4
:1001B000010F18BFFB1A43F001031847E044000089
:1001C00000450000103A24BF78C878C1FAD8520719
:1001D00024BF30C830C144BF04680C6070470000C1
:1001E0000023002400250026103A28BF78C1FBD840
:1001F000520728BF30C148BF0B6070471FB504F0DD
:1002000039FA9DE8030000F069F91FBD10B510BD73
:1002100000F0C0F91146FFF7F1FF04F0E5F900F036
:10022000DEF903B4FFF7F2FF03BC00F00FFA0000A1
:100230000948804709480047FEE7FEE7FEE7FEE77A
:10024000FEE7FEE7FEE7FEE7FEE7FEE704480549B6
:10025000054A064B70470000052C0008890100087C
:1002600088090020880F0020880B0020880B0020C0
:1002700070B5064600F016F9056806F10B0020F08F
:100280000704B4429CBF002070BD2B466A68BAB117
:100290001068A04210D304F1080188423CBF5068A6
:1002A000586007D35168101941601168091B01603B
:1002B00058601460101D70BD13465268002AE7D1C3
:1002C0002146284600F0F6F80028DED170BD70B552
:1002D0000446051F00F0E6F80068002C14BF4468CF
:1002E00070BD002C18BFAC423CBF20466468F8D3F8
:1002F00001680A18AA4218BF456003D12A6805465A
:100300001144016028684119A1421CBF6C6070BD96
:100310006168696021680844286070BD53EA020C76
:1003200000F069802DE9F04B4FF00006002B1FBF55
:10033000B3FA83F503FA05F424FA05F65E4012BF1A
:100340001643B2FA82F502FA05F4C5F120051EBF84
:1003500022FA05FC44EA0C04203556EA044C4FEA24
:10036000144418BF641C4FF000084FF0000990427D
:1003700071EB030C39D3002919BFB1FA81F701FAE7
:1003800007F6B0FA80F700FA07F6C7F120071EBF9C
:1003900020FA07FC46EA0C062037B6FBF4FCA7EB74
:1003A0000507103F07F01F0BCBF120060CFA0BFBE3
:1003B0002CFA06F644BFB3460026202FA4BF5E46A3
:1003C0004FF0000B5BEA060C08BF4FF0010B19EB76
:1003D0000B09ABFB027C48EB0608C01B06FB02CCFA
:1003E0000BFB03CC71EB0C01C1E70B460246414607
:1003F0004846BDE8F08B13B54FF000004FF0000108
:10040000AFF30080BDE81C4070474FF000020429A4
:10041000C0F0128010F0030C00F01B80CCF1040C33
:10042000BCF1020F18BF00F8012BA8BF20F8022B67
:10043000A1EB0C0100F00DB85FEAC17C24BF00F80D
:10044000012B00F8012B48BF00F8012B70474FF03B
:10045000000200B5134694469646203922BFA0E814
:100460000C50A0E80C50B1F12001BFF4F7AF090720
:1004700028BFA0E80C5048BF0CC05DF804EB890011
:1004800028BF40F8042B08BF704748BF20F8022B54
:1004900011F0804F18BF00F8012B7047704770476C
:1004A00070470000004870473009002070477047CF
:1004B0007047704738B504460A4600206946AFF3D6
:1004C0000080002808BF38BD02460099204600F091
:1004D0003FF8012038BD012000F054B8F8B5AFF363
:1004E0000080054600200C46102000BF0646A819D3
:1004F000A0420DD9324669460020AFF300800700C4
:1005000008BF00F03FF80098A04218BF0546C41984
:10051000FFF7C8FF05600746F01D20F007004619E9
:10052000284600F00AF8B44208BFF8BDA21B3146C5
:100530003868BDE8F84000F00BB800210160C0E960
:1005400001107047102070470048704728090020AC
:10055000034640688C46002818BF88423CBF0346CB
:100560004068F8D318681844884207D00CF103009B
:1005700020F00700001D411A521A0146081D0A60AA
:10058000FFF7A5BE10B500F039F8BDE8104000F047
:100590002FB870477546FFF7D7FFAE46050069468E
:1005A000534620F00700854618B020B5FFF74EFEF1
:1005B000BDE820404FF000064FF000074FF0000864
:1005C0004FF0000B21F00701AC46ACE8C009ACE8E5
:1005D000C009ACE8C009ACE8C0098D46704710B549
:1005E0000446AFF300802046BDE81040FFF719BE77
:1005F000002801D000F02AB87047000010B501288B
:1006000005D0002103A000F027F8012010BD09A1AA
:10061000F8E7000053494752544D454D3A204F7575
:1006200074206F662068656170206D656D6F7279EA
:10063000000000003A2048656170206D656D6F72A2
:100640007920636F727275707465640001491820B7
:10065000ABBEFEE72600020070B505460C460A2038
:1006600000E06D1C00F011F835B128780028F8D1B1
:1006700002E0641C00F009F814B120780028F8D1D9
:10068000BDE870400A20AFF3008008B569468DF8D8
:1006900000000320ABBE08BDFEE7000070B50546B4
:1006A000D0F87C03C46994F84E0003281BD00428BA
:1006B00018D1217B284602F0DBFF012812D1217BD3
:1006C000284602F0C0FFA16A814214D0628B8242A8
:1006D00011D2091AA162216A084420625FF0030066
:1006E00084F84E0070BD237B628B2846216A02F09D
:1006F0004EFB0420F4E7002084F84E00284602F068
:10070000AAFC70BDF8B50646D0F87C030125C46983
:1007100094F84D0001280AD0022807D1617B3046A9
:1007200002F0A6FF012811D002281AD0F8BD228BB2
:10073000606A0095637B904200D882B23046E169DE
:1007400002F035FB022084F84D00F8BD208B626A70
:100750000021824208D9121A6262E3691844E061FA
:1007600003D084F84D50F8BD616284F84D103046D6
:1007700002F074FCF8BD70B504460021084604EB95
:100780008102491CC2F884031029F8D300224FF4D7
:100790000075A118521C81F81C01AA42F9D32070DF
:1007A00060700121A170C4F8C40321764022A271B7
:1007B000607684F81C0384F81D1384F81F0384F802
:1007C0001E03090204F11C00FFF741FE294604F54F
:1007D0008E70FFF73CFE122104F22630FFF715FE63
:1007E0003E2104F54E70FFF732FE002070BD7047C9
:1007F00072B6FEE7A12202742122427400224282D4
:1008000082820722C28202F04DBC000070B504460D
:1008100000F00CF90546601C02D00448007804443E
:1008200000F004F9401BA042FAD370BD0400002080
:100830002DE9F84FDFF8BCA10022012503264FF077
:100840000F090AF1040BAAF1040E00BF0B6805FAA8
:1008500002F42340A34270D10F7907F00307012F60
:1008600001D0022F16D187684FEA420806FA08FC29
:1008700027EA0C07D1F80CC00CFA08FC4CEA070C6C
:10088000C0F808C04768A7430C79C4F3001494402B
:100890003C4344600C79E443A4070AD0C4684FEA9F
:1008A000420C06FA0CF7BC438F6807FA0CF7274393
:1008B000C7600C7904F00304022C12D1D40800EBB9
:1008C000840CDCF820405707FF0E09FA07F824EAE9
:1008D0000804D1F8108008FA07F848EA0408CCF8B0
:1008E000208004684FEA420C06FA0CF7BC430F79EB
:1008F00007F0030707FA0CF7274307604C6814F466
:10090000403F70D03C4C276847F4804727602468FC
:1009100022F0030704F480440094384C07EB040CE5
:10092000DCF8084897074FEA177809FA08F7BC433C
:10093000334FB84202D1002724E054E0314FB8428F
:1009400001D101271EE0304FB84201D1022719E042
:100950002E4FB84201D1032714E02D4FB84201D1E8
:1009600004270FE02B4FB84201D105270AE02A4F98
:10097000B84201D1062705E0284FB84201D1072728
:1009800000E0082707FA08F72743CCF80878DAF8D8
:1009900000405746D1F804C09C435FEACC2C00D5F8
:1009A0001C433C60DBF800405F46D1F804C09C4328
:1009B0005FEA8C2C00D51C433C60DEF80040774693
:1009C000D1F804C09C435FEA8C3C00D51C433C60DA
:1009D000084F083F3C68D1F804C09C435FEACC3C18
:1009E00000D51C433C60521C102AFFF42FAFBDE819
:1009F000F88F0000083C01404438024000300140BC
:100A0000000002400004024000080240000C0240C6
:100A1000001002400014024000180240001C024076
:100A20000AB1816170470904FBE700000148806852
:100A30007047000004000020D0F8DC0302F0D5BDB0
:100A4000D0F8DC0302F0DBBD006803F031BA0068C7
:100A500003F032BAC1EB011100EB8100002200F873
:100A60001A2F4270C272827210467047C1EB011198
:100A700000EB810090F84C007047C1EB011100EBD6
:100A80008100806B704710B5044690F8D4030128AC
:100A900009D0012084F8D403206803F018FA00205C
:100AA00084F8D40310BD022010BD2DE9FF4F83B0A0
:100AB0000546DDE9117690F8D403DDF840809346D1
:100AC0008A4601281CD0CAEB0A11012305EB8104D8
:100AD00085F8D4334FF0000984F8199006982075F2
:100AE00084F815A084F826700BF07F00A07551469D
:100AF0002846FFF7AFFF5FEA0B6005D5E37505E019
:100B0000022007B0BDE8F08F84F81790286803F042
:100B1000D3F9012F06D1B8F1010F03D110B9BC2EC2
:100B200000D9BC2684F81880B0B22085CDF80080AA
:100B3000CDE9017028685A465146069B03F032FA07
:100B400085F8D493DDE770472DE9F0030E46DDE923
:100B500006C9DDE90874C1EB061100EB810102252D
:100B6000CA7581F82630BCF1000F0AD081F82A50EE
:100B7000002463B1012B31D0022B28D0032B16D1D6
:100B800025E04FF0030881F82A804C76F0E7BCF1AD
:100B9000010F0CD11AB18A7E012A19D007E0D7B90A
:100BA000012281F83D2000E0C2B181F82A50C1F84D
:100BB0002C904F6381F84C408C634E7581F84D400A
:100BC00082790068BDE8F003143103F07BBA12B1FA
:100BD00091F83C20E8E791F83D20E5E781F82A40CC
:100BE000E5E700002DE9F04106680446304603F0D1
:100BF0006AF9012877D1206803F020FC002872D020
:100C0000206803F01BFC800203D521684FF400101C
:100C10004861206803F012FCC00203D521684FF43C
:100C200080104861206803F009FC400103D5216869
:100C30004FF080604861206803F000FC800702D517
:100C4000216802204861206803F0F8FB800018D575
:100C500021684FF000504861D6F84004C00710D119
:100C60001021304603F006F9304603F0E7F8607AC9
:100C7000022803D10121206803F0BCFB2046FFF7C6
:100C8000DFFE206803F0DAFBC00102D5204601F048
:100C9000CEFC206803F0D2FB000705D5204600F00B
:100CA000D0F8216808204861206803F0C7FB800164
:100CB00024D5206803F002FA074600254FF001080A
:100CC00015E000BF05F00F0108FA01F038420DD021
:100CD00006EB4510D0F80005E9B20004204603D524
:100CE00001F076F902E01CE001F030FB6D1C607948
:100CF000A842E7D821684FF000704861206803F0EF
:100D00009DFBC043C0060CD42068816921F010010E
:100D10008161204601F0D5FC2068816941F0100115
:100D20008161BDE8F081F8B5040005D094F8D503E1
:100D30002568002610B106E00120F8BD84F8D463D0
:100D4000204600F029F8032084F8D503B5F1A04F20
:100D500000D1A671206803F03DF8207C8DF80000DA
:100D600094E80F0002F0D6FF022560B90121206847
:100D700003F0A0FB38B9207C8DF8000094E80F0048
:100D800003F0D0FA10B184F8D553D5E7012084F8E8
:100D9000D5030020F8BD000030B587B0044614210B
:100DA0006846FFF754FB2068B0F1A04F38D11D48CA
:100DB0000024016841F00101016000681A4D00F053
:100DC000010005904FF40070CDE900046946284603
:100DD0000294FFF72DFD4FF4E05000900220CDE982
:100DE00001040A20CDE9034069462846FFF720FDAB
:100DF0000C48001D016841F0800101600948143071
:100E0000016841F4804101600068002200F48040E4
:100E100005901146432000F0B5FB432000F0A4FBF1
:100E200007B030BD3038024000000240D0F8DC038B
:100E300002F068BCD0F8DC0302F068BC006803F084
:100E400020BBD0F8DC0302F017BC10B5044690F8C4
:100E5000D40301280DD0012084F8D4030121206897
:100E600002F0D0FF206802F0E3FF002084F8D403F2
:100E700010BD022010BD10B5044690F8D40301281F
:100E800009D0012084F8D403206803F041FB00203E
:100E900084F8D40310BD022010BD000070B504001A
:100EA00025D094F83D00002520B984F83C50204618
:100EB00000F0B8F8242084F83D002068016821F093
:100EC000010101602068016841F40041016020686F
:100ED000016821F40041016000F0EEFC4D4A6168B8
:100EE000914201D84C4900E04C49884201D201208E
:100EF00070BD4B492368B0FBF1F15E6826F03F06F8
:100F00000E435E606368934206D94FF4967359436B
:100F10004FF47A73B1FBF3F12368491C1E6A26F083
:100F20003F06314319626168914210D84900401E62
:100F3000B0FBF1F2521CC2F30B02042A01D20420CE
:100F400022E0B0FBF1F0401CC0F30B001CE0A268F3
:100F5000F2B301EBC10303EB0116431EB3FBF6F33F
:100F60005B1C43F480431B0549D092B301EBC102E3
:100F700002EB0111401EB0FBF1F0401CC0F30B006E
:100F800040F4804040F400402168CA694CF6FF7389
:100F90009A431043C861D4E90710014320680268EE
:100FA00022F0C00211430160D4E90301014320682B
:100FB000826848F2FF339A4311438160D4E9050106
:100FC00008432168CA6822F0FF021043C86001E0AC
:100FD0000EE016E02068016841F00101016025641F
:100FE000202084F83D00256384F83E50002070BD29
:100FF00001EB4106431EB3FBF6F35B1CB3E7012094
:10100000C2E701EB4101401EB0FBF1F0401CC0F310
:101010000B00B7E7A086010080841E0000093D0098
:1010200040420F0010B586B0044614216846FFF711
:101030000EFA14492068884221D113480021026821
:1010400042F002020260006800F0020005904FF4D6
:1010500010700090122001900120CDE902010420BF
:10106000049069460948FFF7E3FB07481030016820
:1010700041F400110160006800F40010059006B012
:1010800010BD00000054004030380240000402400F
:101090002DE9FF4104460068816800917749784E48
:1010A0004FF04027884201D1324600E03A4692682C
:1010B000019240688846029001D1304600E03846EF
:1010C0004068039060684FF00105B0F5007F1CD0C8
:1010D000D8B1900705D50398000602D5204601F047
:1010E00065FB0098C0070FD0029840067FD52168A5
:1010F0002046CA68E16A8B1CE3620A80618E491E41
:101100006186618E002967D071E00098800719D54B
:101110000298000616D5616A20468A1C626222681F
:101120000988D160618D491E6185618D51B9016861
:101130004A6822F0A0024A60418E19B980F84150F5
:1011400000F0A0F80198C00705D00398400602D52A
:10115000204601F0FBFA0198400622D5039880064C
:101160001FD52168414501D1304600E0384640682E
:1011700020F0600101D1304600E03846416020682F
:10118000416821F0A00141602068C1688068019039
:1011900084F84150606C40F002006064204600F02A
:1011A00072F80098000767D50298800664D5206819
:1011B000416821F0A00141602168414501D13046DC
:1011C00000E03846406820F0600000D03E46706085
:1011D00020688068009043E001684A6822F060025D
:1011E0004A60418D19B980F8415000F04BF80098E1
:1011F00040061ED5029880061BD52068416821F064
:10120000600141602168414501D1304600E0384627
:10121000406820F0A00101D1304600E0384641602E
:1012200084F84150606C40F002006064204600F099
:101230002AF8019800071FD5039880061CD521685D
:10124000414501D1304600E03846406820F0A0001A
:1012500000D03E4670602068416821F06001416026
:1012600084F84150606C40F00400606404B0204693
:10127000BDE8F04100F007B8BDE8FF81003800404C
:1012800000340040704770472DE9F047040005D056
:1012900094F841004FF0000818B109E00120BDE8C2
:1012A000F08784F8408051486063204600F0A6F83B
:1012B000022684F841602068C16940F6BF77B943CF
:1012C000C1612068066260694FF4007902282FD05E
:1012D000E06870B12025A068202800D86D000120AA
:1012E00000F082F9216949451FD1E16819B1A900CF
:1012F00002E01025EFE7E900B0FBF1F000EB800021
:1013000061694000B0FBF1F0401D0A21B0FBF1F033
:1013100000F00101401A40080902821EFE2A09D38A
:10132000606C40F010006064B8E7B0FBF5F0E5E7F2
:101330000220002122690843024320680262D4E9A6
:1013400001010843A269E168114308432168CA69A1
:10135000BA43104340F40060C861206A01283AD1C2
:101360002348606323482168234A4FF04023814289
:1013700001D1114600E01946C96921EA070101D1EE
:10138000154600E01D46E9612168814201D1114600
:1013900000E019460E622568854201D1114600E041
:1013A0001946C9698EB2616849451BD0D1B1002187
:1013B0002789B4F80CC047EA0C07B4F818C04CEA07
:1013C000010C47EA0C07B9B2314341F40061854290
:1013D00000D01A46D161C4F84480012084F841004D
:1013E00000205CE74FF48071E2E700000D28000860
:1013F00091100008003800400034004070B58AB0F9
:10140000054614216846FFF722F800240594069447
:10141000079408942149286888423CD1012005900E
:10142000C0200225CDE9060505A800F00DF908B198
:10143000FFF7DEF91A48016841F4004101600068D5
:1014400000F40040099016481038016841F001018D
:101450000160016801F001010991016841F0040196
:1014600001600068062600F004000990102000903A
:10147000CDE90154CDE9034669460A48FFF7D8F99A
:101480004FF4A4500090CDE90154CDE903466946DC
:101490000548FFF7CDF90AB070BD0000003C0040E0
:1014A0004038024000000240000802407047704788
:1014B000024881680278114481607047040000206E
:1014C0000B4810B5016841F400710160016841F4F6
:1014D00080610160016841F480710160032000F0C7
:1014E00071F8002000F006F800F024F8002010BD8C
:1014F000003C024070B50D4D04464FF47A712878D7
:10150000B1FBF0F00A490968B1FBF0F000F05CFCB7
:1015100048B9102C07D200222146501E00F032F8A4
:1015200000206C6070BD012070BD00000400002030
:10153000100000200B4882B0016841F48041016036
:10154000006800F4804000900648001F016841F0E8
:1015500080510160006800F080500090072002B0C8
:1015600000F030B844380240002809DB00F01F02C8
:10157000012191404009800000F1E020C0F80011F5
:1015800070470000F0B40E4B1B680C46C3F30223F7
:10159000C3F10705042D00D90425191D072901D21F
:1015A000002300E0DB1E012606FA05F1491E21405A
:1015B00099409E40761E16403143F0BC03F003B8BC
:1015C0000CED00E0064900F0070208684FF6FF0343
:1015D000184040EA0220034A1043086070470000A8
:1015E0000CED00E00000FA0501460020012908D1B9
:1015F0001149096811F4000104D0B1F5000F00D1C0
:101600000E4870470C48001F01680068490200F04E
:101610003F0001D50A4900E00A49074AB1FBF0F052
:101620007C321168C1F3881141431068C0F3027025
:10163000B1FBF0F070470000083802400080BB00AA
:1016400000127A000024F4002DE9F84305460068F2
:101650004FF00109C1074FF0000601D1400727D51F
:10166000DFF80C81C8F86860FFF7E0F90746414CE5
:1016700005E000BFFFF7DAF9C01B022857D8206841
:101680000001F7D468688101287A41EA007039497D
:1016900084310860C8F86890FFF7C8F9074604E08D
:1016A000FFF7C4F9C01B022841D820680001F7D514
:1016B0002878800752D52F484030016841F080518A
:1016C000016000682C4C00F080500090206840F4CD
:1016D00080702060FFF7AAF9074604E0FFF7A6F93B
:1016E000C01B022823D82068C005F7D5214C7034D0
:1016F000206810F4407020D0A98901F44071814223
:101700001BD020681D4920F44070C1F800900E6085
:1017100020602068C00710D0FFF788F9064641F224
:10172000883707E0FFF782F9801BB84202D903200F
:10173000BDE8F88320688007F4D5E9680D48C1F357
:1017400001220830032A0BD0016821F4F81101604E
:101750002068A989C1F30B01084320600020E7E756
:101760000268074B22F4F81219400A430260EFE7BF
:10177000000047420038024000700040400E4742DF
:10178000FFFCFF0F2DE9F0470E46050065D0DFF89E
:101790001481D8F80000F7B200F00700B04207D279
:1017A00088F80070D8F8000000F00700B04254D16B
:1017B00028683D4C810712D5400703D5206840F4C6
:1017C000E05020602878000703D5206840F460408E
:1017D00020602068A96820F0F00008432060287885
:1017E000C0072DD0304968680839012812D0022876
:1017F00013D0032811D00968890700292DDA216840
:1018000021F0030101432160FFF710F9814641F205
:10181000883A0EE009688903EFE709688901ECE777
:10182000FFF704F9A0EB0901514502D90320BDE8F7
:10183000F0872068696800F00C00B0EB810FEFD1F1
:10184000D8F80010404601F00701B14207D90770EF
:10185000006800F00700B04201D00120E7E72878D7
:10186000400705D52068E96820F4E050084320606F
:101870002878000706D52068296920F4604040EAEE
:10188000C100206000F028F82168084AC1F3031164
:10189000515CC8400649086006480068FFF72AFE08
:1018A0000020C4E7003C0240083802407E460008A1
:1018B000100000200800002004480549006809685D
:1018C000044AC1F38221515CC840704710000020D7
:1018D000083802408E460008154810B5006810F020
:1018E0000C02144813D04110042A0FD0082A0ED13C
:1018F0000F4C241F2268236802F03F025B0207D5C9
:101900002068C0F38810A0FB010106E0084610BD66
:101910002168C1F38811A1FB00010023FEF7FEFC42
:101920002168C1F30141491C4900B0FBF1F010BD31
:10193000083802400024F4002DE9F84F04006ED06E
:101940002078DFF84C93C007A9F104054AD009F1CB
:1019500004000168C1F38101012908D00068C0F3C7
:10196000810002280AD1D9F80000400206D5286873
:10197000800337D560680028E1D033E06068B0F5B7
:10198000803F10D0B0F5A02F286810D020F4803010
:101990002860286820F4802028606068A8B1FFF7DC
:1019A00045F806460DE0286840F48030F4E740F43E
:1019B00080202860F7E700BFFFF738F8801B642815
:1019C00073D828688003F7D50CE0FFF72FF8064698
:1019D00005E000BFFFF72AF8801B6428F0D82868CC
:1019E0008003F7D42078DFF8AC8280074FF0000A3C
:1019F0003ED5A748001D016811F00C0F08D0006803
:101A0000C0F3810002280BD1D9F80000400207D4AE
:101A10002868800716D5E068012800D112E033E17C
:101A2000E068B8B10120C8F80000FEF7FFFF0646E5
:101A300005E000BFFEF7FAFF801B0228C0D8286827
:101A40008007F7D52868216920F0F80040EAC10036
:101A500028600DE0C8F800A0FEF7E8FF064604E0A5
:101A6000FEF7E4FF801B02281FD828688007F7D400
:101A70002078000722D5864F87486169703771B199
:101A800001210160FEF7D2FF064604E0FEF7CEFF1B
:101A9000801B022809D838688007F7D50EE0C0F807
:101AA00000A0FEF7C3FF064605E082E0FEF7BEFF9A
:101AB000801B02287DD838688007F7D4207840073B
:101AC00068D5DFF8CCB100270BF13C0BDBF8000048
:101AD000C0000BD4DBF8001041F08051CBF80010AF
:101AE000DBF80000012700F0805000906B4E30685A
:101AF000C00510D4306840F480703060FEF796FF67
:101B0000009005E0FEF792FF0099401A022850D895
:101B10003068C005F6D55E4EA0686C3601280FD03F
:101B20000528306810D020F001003060306820F0C7
:101B300004003060A068B8B1FEF778FF00900FE0B5
:101B4000306840F00100F4E740F004003060F7E74F
:101B5000FEF76CFF0099411A41F28830814266D845
:101B600030688007F4D50EE0FEF760FF009007E0D4
:101B7000FEF75CFF0099411A41F28830814256D845
:101B800030688007F4D42FB1DBF8001021F08051C9
:101B9000CBF80010A069C8B33D49091D0968C1F31D
:101BA000810102294AD00228504607D0C8F86000B7
:101BB00000E03CE0FEF73AFF04463BE04746C8F849
:101BC0006000FEF733FF064605E000BFFEF72EFF7C
:101BD000801B02282BD828688001F7D4D4E907019C
:101BE0000843A16A2E4A490802EB0141626A41EAB0
:101BF0008211084394F82C1040EA0161C9F80010E2
:101C000001203866FEF712FF044606E03EE000BF02
:101C1000FEF70CFF001B022809D828688001F7D5C1
:101C200034E000BFFEF702FF001B022802D90320A8
:101C3000BDE8F88F28688001F4D427E00128F7D0A8
:101C4000D9F80000E26900F4800191421CD1226AB7
:101C500000F03F01914217D147F6C071626A01401E
:101C6000B1EB821F10D1A26A4FF0FF3300F4403174
:101C700003EB5202B1EB024F06D194F82C1000F0A6
:101C80007060B0EB016F01D00120D1E70020CFE7F9
:101C90000438024000004742800E47420070004076
:101CA0000000FFFF70B5040009D0606A002540B154
:101CB00025616561A56294F8510040B10CE00120F6
:101CC00070BD6068B0F5827FF4D0E561F2E784F81A
:101CD0005050204600F044F8022084F8510020685B
:101CE000016821F040010160A088218900F4827020
:101CF00001F404410843A18901F400610843217CF7
:101D000001F002010843217D01F001010843218B0C
:101D100001F400710843217F01F03801084394F871
:101D2000201001F080010843218D01F40051084387
:101D300021680860A069042101EA104094F8241089
:101D400001F010010843216848602068C16921F44E
:101D50000061C1616565012084F85100002070BDFB
:101D600010B586B0044614216846FEF770FB13498F
:101D7000206888421FD112480021026842F4805234
:101D80000260006800F4805005900D481438026825
:101D900042F001020260006800F001000590E020BE
:101DA00000900220CDE901010520CDE9031069462C
:101DB0000448FEF73DFD06B010BD000000300140B4
:101DC000443802400000024010B5401EB0F1807F50
:101DD00001D3012010BD4FF0E02460610F21601796
:101DE00002F0F1FB0020A06107202061002010BD5F
:101DF00010B5040003D094F83D0010B107E00120B5
:101E000010BD002084F83C00204600F01FF802209E
:101E100084F83D00211D206800F0FCFE012084F8BC
:101E2000460084F83E0084F83F0084F8400084F8BF
:101E3000410084F8420084F8430084F8440084F8A8
:101E4000450084F83D00002010BD000008B5006882
:101E50000649884208D10648016841F48031016092
:101E6000006800F48030009008BD00000040014090
:101E70004438024090F83D10012901D001207047FC
:101E8000022180F83D100168CA6842F00102CA6070
:101E900000681149884214D0B0F1804F11D00F4929
:101EA00088420ED00E4988420BD00E49884208D095
:101EB0000D49884205D00D49884202D00C4988421C
:101EC00004D1816801F00701062903D0016841F0BF
:101ED0000101016000207047000001400004004043
:101EE00000080040000C0040000401400040014098
:101EF0000018004070B5044690F83C000025012809
:101F000017D0012684F83C60022084F83D00206848
:101F1000826822F0770222F47F42826008685028AB
:101F200038D00DDC20284FD005DC90B3102811D11B
:101F30004AE0022070BD302846D040280AD13BE05C
:101F400060282FD070280DD0B0F5805F03D0B0F599
:101F5000005F12D0012584F83D60002084F83C0029
:101F6000284670BDCB68D1E90121206800F0BEFE93
:101F70002068816841F0770109E0CB68D1E901214F
:101F8000206800F0B3FE2068816841F480418160E0
:101F9000E1E719E0CA684968206800F0B9FE5021FD
:101FA000206806E0CA684968206800F0C2FE602127
:101FB000206800F0A5FECEE7CA684968206800F0F6
:101FC000A7FE40212068F4E7226801461046F0E7AA
:101FD0002DE9F05F054600680E46074602F026FA36
:101FE000C6EB061140074FF007084FF0040905EB58
:101FF000810401D5484633E03146286802F016FADC
:10200000C0054FF0080A08D507EB46114FF4807061
:10201000C1F8080584F84DA028E03146286802F090
:1020200005FA000705D507EB4611C1F808A50620FB
:102030000CE03146286802F0F9F9400509D507EBB4
:1020400046114FF48060C1F80805092084F84D005E
:102050000CE03146286802F0E9F900060AD5802034
:1020600007EB4611C1F8080584F84D803146286811
:1020700001F02DFF3146286802F0D8F98005286864
:10208000314604D501F023FF4FF4007059E102F00E
:10209000CDF9C0074FF0200B4FF0010A4FF00008B8
:1020A0004ED007EB4617C7F808B5E07E012807D1E8
:1020B00084F81B80D7F8040520F48030C7F80405A5
:1020C000A87930B1206BD7F81015C1F31201401A6E
:1020D000A06384F84DA0C4F844805246C7F808A510
:1020E00094F8260030B1022804D003280AD0012831
:1020F00008D013E03146286801F0E9FE1020C7F847
:1021000008050BE0D7F8000540F00050C7F80005BF
:1021100084F84C2031462846FEF715FDA8790128A1
:1021200007D1208DA16B0144491EB1FBF0F0C0071F
:1021300004D014F83C0F80F001002070BDE8F09F3F
:102140003146286802F072F980060CD507EB46117B
:10215000C1F808B5A07E0128F0D184F81BA00320A7
:1021600084F84D00B4E03146286802F05FF980073A
:102170004FF0050B75D507EB46100221C0F8081586
:1021800094F84D20012A16D0062A19D0072A1CD00F
:10219000092A1AD0052A33D0032A63D0042A7DD015
:1021A000082A7ED0022AC9D094F84C20314628460D
:1021B000FEF7C9FCC2E784F84D1084F84CA0F3E7A1
:1021C00084F84D1084F84CB0EEE784F84D10626C42
:1021D000521C6264022A10D9C4F84480A27E41468F
:1021E000012A07D1E1762177D0F8041521F4803156
:1021F000C0F8041584F84C90D6E784F84C1022E01F
:1022000084F84D10E27E012ACED194F82620032ACC
:10221000F3D1A26C521CA264022A11D9C4F84880DE
:1022200084F81B80616C032901D284F81CA0D0F8CB
:10223000041521F48031C0F8041584F84C9002E0B4
:1022400084F84C10B0E794F8261009B10229ABD1FC
:10225000D0F8001521F0804141F00041C0F8001590
:10226000A2E724E084F84D10E27E012A9CD184F894
:102270004C10D0F8041541F48031C0F80415D0F8A2
:102280000C1541F04001C0F80C15D0F80C1521F0E8
:102290002001C0F80C15D6E700E002E084F84D10EC
:1022A000ABE784F84D10606C401C6064A2E73146D7
:1022B000286802F0BBF8400610D507EB4611402015
:1022C000C1F8080584F84DB0A07E08B9C4F8448070
:1022D00031462868BDE8F05F01F0F9BD3146286855
:1022E00002F0A4F8C0067FF565AF94F82600032835
:1022F00003D028B1022803D00FE0C4F8448006E0E0
:10230000C4F84480A87910B1E07E012818D184F87F
:102310004D903146286801F0DAFDE07E01280FD1AA
:1023200007EB461084F81B80D0F8041521F48031A7
:10233000C0F80415D0F80C1541F02001C0F80C15B8
:10234000102007EB4611C1F80805F7E62DE9F05F0C
:10235000054600680F46064602F068F8C7EB07110D
:1023600040074FF0040A05EB810405D506EB471141
:10237000C1F808A5072089E03946286802F056F818
:1023800080064FF000084FF001094FF0020B28D5EE
:1023900006EB47112020C1F80805607E03260128BE
:1023A00009D184F8198084F84CB084F84D6039461E
:1023B000286801F08CFDA07E012810D1E07E002865
:1023C0000DD194F82600012801D084F81B9084F8E0
:1023D0004D603946286801F07AFDC4F84480BDE8B4
:1023E000F09F3946286802F021F8800506D506EBF3
:1023F00047114FF40070C1F8080549E039462868D4
:1024000002F014F8C00720D0C4F844803946286888
:1024100002F00CF8400606D506EB471184F8199037
:102420004020C1F80805E07E48B106EB471084F86B
:102430001B80D0F8041521F48031C0F8041506EB98
:1024400047114846C1F8089520E03946286801F050
:10245000EDFF40060ED5052084F84D00A07E08B99A
:1024600084F81990C4F844803946286801F02FFD9B
:10247000402028E03946286801F0D8FF00070DD534
:1024800006EB47110820C1F80805062084F84D0026
:1024900039462868BDE8F05F01F019BD3946286863
:1024A00001F0C4FFC00613D5C4F8448084F84DA0E1
:1024B000607E18B9207E08B984F8199039462868DA
:1024C00001F005FD102006EB4711C1F8080586E76D
:1024D0003946286801F0AAFF00061CD5A87970B11A
:1024E000606C401C6064022811D9C4F844805246D4
:1024F00084F84CA039462846FEF725FB09E0072062
:1025000084F84D003946286801F0E1FC01E084F8C8
:102510004CB08020D7E73946286801F087FF400596
:1025200009D5092084F84D003946286801F0CFFC10
:102530004FF48060C7E73946286801F077FF8007CD
:10254000C5D506EB47125846C2F808B594F84D10A9
:10255000012917D003293AD004293ED005294CD0AF
:1025600006294DD0072901D00929B0D184F84D00A2
:10257000616C491C6164022948D9C4F8448084F81C
:102580004CA04DE084F84D0084F84C9094F826005F
:10259000022801D0032843D1A87928B994F83D0036
:1025A00080F0010084F83D00A879012838D1606BE3
:1025B00010B3218D0844401EB0FBF1F0C0072FD0AE
:1025C00094F83D0080F0010084F83D0028E084F894
:1025D0004D00E17E012916D022E084F84D0084F8F8
:1025E0004C00E07E01281BD184F81B80D2F8040542
:1025F00020F48030C2F8040512E084F84D0002E0B7
:1026000084F84D00052084F84C0009E084F84C0063
:10261000D2F8000520F0804040F00040C2F80005EC
:1026200094F84C2039462846FEF78DFAD7E67CB55B
:1026300004680546D4F840040190D4F8400420F022
:102640002E0000900198800709D50198C00702D09C
:102650002846FEF7F1F9009840F00200009001983A
:10266000000724D5009840F008000090019840072A
:102670001AD5687A022803D0E87901280CD00FE037
:102680000198C0F341400228286803D0012101F0DD
:10269000B1FE05E00221FAE74EF66020C4F804041A
:1026A0002846FEF7C7FB02E02846FEF7BFFB01986D
:1026B0008006009802D540F020000090C4F8400445
:1026C0007CBD2DE9F041024600680646016AC1F36F
:1026D000434301F00F07C1F30A15022B2ED1002D41
:1026E0002CD0C7EB071102EB8104E16A002925D049
:1026F000A26B636B2A449A4222D82A4601F0A2FEBA
:10270000E06A2844E062A06B2844A06306EB47100F
:10271000D0F81015228DC1F3C941AA420ED100296B
:102720000CD0D0F8001521F0804141F00041C0F8F4
:10273000001514F83C0F80F001002070BDE8F08116
:10274000042084F84C00F9E7FEE7000070B5154955
:102750000268154B4FF040248A4201D11A4600E02E
:102760002246D568C26A961CC6621580428E521EE9
:102770004286428E002A14D102688A4201D119464B
:1027800000E02146496821F0600100D023465960ED
:10279000418D002905D14FF0010180F84110FEF76D
:1027A00071FD70BD003800400034004070B5416AD2
:1027B000144B8A1C426205680988134A4FF0402472
:1027C0009D4201D1154600E02546E960418D491E34
:1027D0004185418D002914D10168994201D11146EA
:1027E00000E02146496821F0A00100D02246516056
:1027F000418E002905D14FF0010180F84110FEF70C
:1028000041FD70BD00380040003400407CB50168D7
:1028100004468868009094F841000125042834D1CA
:102820000098C00718D04868C043400614D4C9684F
:102830002046E26A1180E16A891CE162618E491ECC
:102840006186618E41B901684A6822F060024A607F
:1028500080F84150FEF72AFE0098400615D5206802
:102860004168C943890610D4416821F06001416084
:102870002068C1688068019084F84150606C40F025
:10288000020060642046FEF7FEFC94F84100032835
:1028900034D10098800719D521684868C0430006E4
:1028A00014D4626A20461288CA60616A891C616217
:1028B000618D491E6185618D41B901684A6822F0C8
:1028C000A0024A6080F84150FEF7F1FD0098000731
:1028D00014D520684168C94389060FD4416821F0A6
:1028E000A001416020688068009084F84150606CCD
:1028F00040F0040060642046FEF7C5FC7CBD00008B
:1029000020B1012201210248FEF78AB80022F9E72E
:10291000000802402DE9F04F87B014216846FDF70A
:1029200096FD4E480024016841F0100101600168E5
:1029300001F010010591016841F004010160016896
:1029400001F004010591016841F080010160016816
:1029500001F080010591016841F001010160016809
:1029600001F001010591016841F002010160016877
:1029700001F002010591016841F008010160006861
:10298000002200F00800059008213548FEF748F8BD
:10299000DFF8D080012211464046FEF741F8DFF80B
:1029A000C8B04FF21009002249465846FEF738F8E1
:1029B000082601250096CDE901546946284803946C
:1029C000FDF736FF0095CDE9015469464046039472
:1029D000FDF72EFF00960226CDE901640527CDE91B
:1029E000034769464046FDF723FF4FF490180095D2
:1029F000CDE9018469461D48FDF71AFF0420CDE9A1
:102A00000004DFF86CA0694650460294FDF710FF01
:102A1000A8020090CDE90164CDE90347694650461C
:102A2000FDF706FFCDF80090CDE901546946584600
:102A30000394FDF7FDFE2020CDE9000469465846C9
:102A40000294FDF7F5FE0096CDE90184694604483D
:102A5000FDF7EEFE07B0BDE8F08F00003038024011
:102A60000010024000080240000C0240000002403A
:102A7000000402400E4810B50C4901604FF4827109
:102A8000416000218160C1604FF400720161C0E9C2
:102A90000512C1610162416281620A21C162FFF7D0
:102AA00001F9002801D072B6FEE710BD00300140E8
:102AB000D00000201FB50021104800910191029123
:102AC0000D4A039102601022C0E9012142F2107206
:102AD000C0E903218161FFF78BF908B172B6FEE707
:102AE0004FF48050009069460448FFF703FA00282D
:102AF00001D072B6FEE71FBD004001402801002052
:102B000010B501220B490C4800F047FD08B1FDF754
:102B10006FFE0A49084801F09FF808B1FDF768FE0A
:102B2000054801F0DCF8002803D0BDE81040FDF7AF
:102B30005FBE10BDF53C00087001002014000020AD
:102B4000014800F06BBF000070010020FEE7FEE7C7
:102B50000148FEF747B8000048050020704770475D
:102B6000FEF7A6BC10B592B030216846FDF76FFCA9
:102B700014210CA8FDF76BFC20480024016841F0EB
:102B800080510160006800F0805011901C4801687D
:102B900041F480410160006800F4804011900320FE
:102BA00000904FF480300190012003901020049099
:102BB00002204105CDE90601082108914FF4A871D2
:102BC000CDE9091007200B906846FEF7B5FE08B165
:102BD00072B6FEE70F20CDE90C044FF4A050CDE90A
:102BE0000E404FF48050109000210CA8FEF7CAFD53
:102BF000002801D072B6FEE712B010BD4038024086
:102C0000007000400248016841F4700101607047A3
:102C100088ED00E0F0B50268294C2A4D2A4E2B4F72
:102C20002B4B4FF0804CA04209D0604507D0A84202
:102C300005D0B04203D0B84201D0984204D122F06E
:102C4000700E4A6842EA0E02A0421BD0604519D0BD
:102C5000A84217D0B04215D0B84213D0984211D034
:102C60001C4DA8420ED01C4DA8420BD01B4DA842B3
:102C700008D01B4DA84205D01A4DA84202D01A4DCB
:102C8000A84203D122F44075CA682A434D6922F054
:102C900080022A4302608A68C2620A688262A04295
:102CA00001D0984201D109690163012141610169A3
:102CB000C90703D0016921F001010161F0BD0000E5
:102CC000000001400004004000080040000C0040EB
:102CD0000004014000400140004401400048014020
:102CE00000180040001C00400020004010B584681F
:102CF00042EA032224F47F440A432243826010BD47
:102D0000826822F070020A4342F007018160704736
:102D100010B5036A046A24F001040462846924F093
:102D2000F00444EA021423F00A020A4384610262B6
:102D300010BD10B5036A046A24F0100404628469AB
:102D400023F0A00324F4704444EA023243EA011160
:102D50008261016210BD10B500224FF6FF7300EBD7
:102D60008204B4F8844324040BD49A4207D002F0BE
:102D70000F0300EB830041F40041C0F88413D0B28C
:102D800010BD521CD2B2102AE9D31A46F7E77FB51C
:102D90001C46012501AE0023009586E80E000223A3
:102DA0002A46214600F0E3FC04B0002070BD7FB548
:102DB0001D4690F81D33089C03B100240123CDE982
:102DC0000031CDE9022402230022294600F0CFFC85
:102DD00004B0002070BD70B50446D0F87C03C16912
:102DE00020464031FDF706FD050004D1D4F8D42378
:102DF000022120469047284670BD70B50546D0F8A0
:102E00007C030026C469217839B1284600F027F9EF
:102E10002178284600F0AAF92670217B39B128468E
:102E200000F01DF9217B284600F0A0F92673617B94
:102E300039B1284600F013F9617B284600F096F975
:102E40006673D5F87C03C06920B1FDF740FAD5F868
:102E50007C03C661002070BDFEB502220546012339
:102E6000114600F061F90646FF2841D0022E3FD2FC
:102E70000146284600F0FEFED0BB5020FDF7F8F9D1
:102E8000D5F87C130446C861200031D05021FDF7ED
:102E9000DEFA06EB860000EBC60005EB400191F878
:102EA0004E03020603D56070B1F85003608161786B
:102EB0002846FFF750FF2070014695F81D036389EF
:102EC00003228DE80D0095F81C336278284600F047
:102ED0005FFC21780022284600F028FC00231A46D7
:102EE0000A21284600F020F9FF2801D0022801D34A
:102EF0000220FEBD00EB800101EBC00005EB4000AD
:102F000090F84E130A0604D5E173B0F850136183AC
:102F100003E0A173B0F85013218390F856130A060A
:102F200004D5E173B0F85803608303E0A173B0F8EF
:102F300058032083A17B2846FFF70DFF6073E17BD8
:102F40002846FFF708FF2073208B95F81D130226F3
:102F50000091CDE9016095F81C33A27B617B284686
:102F600000F016FC608B95F81D130091CDE901600F
:102F700095F81C33E27B217B284600F009FC0020F9
:102F800084F84C000246617B284600F0CFFB217B91
:102F90000022284600F0CAFB0020FEBD70472DE944
:102FA000F0410546D0F87C0301270026C4694FF0A4
:102FB000040894F84C0005284AD2DFE800F0030525
:102FC000163B4200002743E02122A16C2A742022F4
:102FD0006A746E82AE8207222846EA8200F062F8A6
:102FE00048B9022084F84C0032E004F14001284640
:102FF000FDF700FC20B101282AD084F84C8027E09E
:1030000084F84C60A06C94F84410027991421FD16E
:1030100094F84610827991421AD194F84510427979
:10302000914215D1216C0068814211D12846FFF7E9
:10303000B5FF0DE02846FDF765FB2846FDF72EFBA2
:1030400006E00021284600F00FF808B984F84C602B
:103050003846BDE8F081704700207047704710B5D2
:1030600000F0BAFA002010BD8278012A07D10222AE
:10307000027401224274002242828182C2820022B2
:10308000114600F00FB87FB51C46012501AE0023A4
:10309000009586E80E002A46214600F068FB04B041
:1030A000002070BD70B504460120A3780546012BB1
:1030B0000BD0022B08D1204600F0F1F858B10328BC
:1030C00009D0022800D1A57070BDA160A28125762B
:1030D0000221A17070BDA5700021217670BD7FB561
:1030E0001D4690F81D33089C03B100240123CDE94F
:1030F0000031CDE9022400231A46294600F037FBAF
:1031000004B0002070BD1FB500231446CDE9003186
:103110000822CDE902231A46214600F028FB04B01C
:10312000002010BDFDF772BB70B50546002005F507
:103130004E7500BF00EB800404EBC00405EB4404B3
:10314000E67B0A348E4201D0FF2909D1A679964246
:1031500001D0FF2A04D1E4799C4206D0FF2B04D091
:10316000401CC0B20228E5D3FF2070BD102907D251
:1031700000EB8100B0F88413C1F30E01C0F8841392
:103180000020704730B48578029C012D0FD141F0AA
:10319000800101740621417403214282B1EB122F98
:1031A00002D140F2094100E000218182C48222461E
:1031B00030BC1946FFF776BF0A8803781A440A80A4
:1031C000017808447047F8B50D46064600F11C0426
:1031D000B1F5807F01D90320F8BD23464FF400727A
:1031E000002130460095FFF7CDFF0028F4D12A4694
:1031F00021463046BDE8F84000F0D4BAF8B50C4698
:103200000546B1F5007F01D90320F8BD05F58E73A1
:103210001E464FF48072002128460094FFF7B2FF4B
:103220000028F2D1224631462846BDE8F84000F099
:103230005EBBF8B51C461646B3F5007F17D8B6B18D
:1032400041F4407200F58E731D4600210094FFF793
:1032500099FF00280CD16978032909D129788A1EA1
:10326000A24200D814460021A2B2AD1C06E0032001
:10327000F8BD6B5C891C06F8013B89B29142F8D31A
:1032800000213170F8BD01004FF0000004D0012989
:1032900001D0022901D002207047012070472DE99A
:1032A000F84F0125017E04460B26092728464FF0DA
:1032B00007084FF0050A4FF00D090C2919D2DFE875
:1032C00001F0B4060E26313C48606B7C899A627925
:1032D00004F110012046FFF716FF022012E0617989
:1032E000204600F0C5F9012804D0042871D0022836
:1032F0007FD09AE0207CE18A00F0800021B1802814
:103300003AD10320207690E0802814D02EE0D4F823
:10331000C403E0812379A2892046A168FFF7B3FEA8
:103320000420EFE72179204600F0A2F9012802D01D
:10333000052840D056E0277677E000906379A2898F
:103340002046A168FFF7CBFED4F8C403E081062035
:10335000D8E76179204600F08BF9012806D00528CE
:1033600007D0022808D0042809D05EE084F818802D
:103370005BE00C2020761EE084F818A055E026764D
:1033800052E00022237911462046FFF77CFED4F854
:10339000C403E0810820B5E72179204600F068F9F0
:1033A000012804D0042824D0052804D03DE084F866
:1033B0001890002539E0032537E00090002263795A
:1033C00011462046FFF78BFED4F8C403E0810A20A3
:1033D00098E70EE06179204600F04AF9012804D010
:1033E0000228A8D0042804D01FE0002584F81890F3
:1033F0001BE0267619E0617E491CC9B2617602297C
:1034000002D82076A07010E0D4F8D42306212046FC
:1034100090470025657661792046FFF7A7FE217960
:103420002046FFF7A3FE257002252846BDE8F88F49
:103430002DE9FE4304460126407800250D27B046BD
:1034400004F58E7208280CD2DFE800F0042A3C68EC
:103450006F86929908212046FFF7D0FE10B103280D
:103460000DD097E094F82D03A07184F8018094F8B2
:103470001D130091CDE9015094F81C3338E094F805
:103480001E03401CC0B284F81E03032818D86179BB
:103490002046FFF76BFE21792046FFF767FE59E0D3
:1034A00012212046FFF7AAFEA8BB022047E000BF7A
:1034B00094F81E03401CC0B284F81E03032840D9B0
:1034C000277067E00121204600F0DFFB10B10328E0
:1034D00022D05FE00220FFF725FE84F81C83032042
:1034E0006070A07994F81D13CDE900154346029051
:1034F00021798022204600F04BF9A07994F81D1321
:103500000091CDE9015094F81C33617900222046E6
:1035100000F03EF93EE00EE027702EE00921204643
:10352000FFF751FE38B9042009E0B4F83A132046F9
:10353000FFF749FE10B10328BAD02BE005206070D8
:1035400028E061792046FFF711FE21792046FFF738
:103550000DFE657025701DE094F8341306250AE011
:10356000FF232046FFF765FE38B1032805D011E0A0
:1035700094F8351307250029F2D165700AE094F814
:10358000361331B1FF232046FFF753FE08B103285D
:1035900000D100263046BDE8FE8370B50E4604001B
:1035A00018D084F8CC230025C4F87C53C4F8805389
:1035B00004F54874FDF7DFF8E57025706570A570B7
:1035C000A4F548740EB1C4F8D463204600F064F842
:1035D000002070BD022070BD10B5D0F8D003FDF7FB
:1035E00052FABDE81040FFF74EBE012180F82013CB
:1035F000002180F8211380F822130846704710B587
:103600000446012084F82103002084F8200384F874
:103610002303204600F0A2F821792046FFF7A6FDFB
:1036200061792046FFF7A2FD002010BD10B590F88B
:10363000CC03012802D10846FFF762F9C820FDF744
:10364000E5F8002010BDD0F8D003FDF716BA10B58C
:103650000124D0F8D003FDF7FAF920B1012805D0F4
:10366000022803D101E0002400E00224204610BD1E
:10367000D0F8D003FDF7FAB9D0F8C413491CC0F84C
:10368000C41301780B2905D1D0F87C13002901D08F
:10369000896908477047000010B5044690F8CC03CC
:1036A00001281CD10F484FF0A0410222C0F8DC4392
:1036B000C4F8D0030160082141710121C1710021CA
:1036C000817142728172FDF72EFB08B1FDF790F80F
:1036D0000448FDF7B9F90146204600F024F800201F
:1036E00010BD000048050020FEB508AF97E8700047
:1036F0008DE87000D0F8D003FDF7D7F9BDE8FE40A3
:10370000FFF7C1BD002180F823137047012180F825
:103710002313704710B5D0F8D003FDF78FFBBDE839
:103720001040FFF7B0BDC0F8C4137047D0F8D00305
:10373000C1EB011100EB8100C17D11B180F83C208B
:1037400001E080F83D200020704710B5D0F8D0038C
:10375000FDF77BFBBDE81040FFF795BD10B5D0F835
:10376000D003FDF788FBBDE81040FFF78CBD2DE9C5
:10377000FF410DF1280898E8F0008DE8F000D0F83E
:10378000D003FDF7E1F904B0BDE8F041FFF77BBDE0
:10379000FEB508AF97E870008DE87000FFF7A4FF52
:1037A0000020FEBD2DE9F74F82B04FF0000B029DC7
:1037B000D84605F54E75F9B10878287048786870D4
:1037C00048880C46FF2801D94FF48070688008793A
:1037D0002871487968718879A871C879E871207A68
:1037E000287229780920092900D02870092A7CD953
:1037F0008146ADF8000061E0022005B0BDE8F08F21
:1038000069462046FFF7D8FC04464078042852D188
:103810002078092801D084F8009008EB880101EB9A
:10382000C80005EB400A20788AF80A0060788AF818
:103830000B00A0788AF80C00E0788AF80D00207957
:103840000AF10A06022800D30220307161797171F1
:10385000A179B171E179F171217A317200271BE010
:1038600069462046FFF7A8FC04464078052813D196
:103870007079012804D1B07902282DD003282BD0EB
:10388000072020700AEBC70122461431029800F08D
:103890006BF87F1C8346FFB23079B84204D9688840
:1038A000BDF800108842DBD83079B84211D808F151
:1038B000010000F0FF08B8F1020F04D26888BDF8DB
:1038C000001088429CD82879022800D30220404565
:1038D0000BD9032091E708E0F0790028D2D12078B5
:1038E0000928CFD084F80090CCE7584685E770B51A
:1038F00000F22633002541B30C781C704C785C70C4
:103900004C885C800C791C714C795C718C799C7151
:10391000CC79DC7190F81D030826C0B1012816D0BF
:1039200002281DD00325082A0DD908891881488945
:10393000588188899881887B9873C87BD873087C64
:103940001874487C5874284670BD022070BD082C3D
:10395000E9D0102CE7D0202CE5D0402C02D1E2E7B2
:10396000082CE0D0DE71DEE7F0B513780B705378E9
:103970004B7093788B70D478CC70938805468B808D
:10398000002092794FF480668A7177101BB1B342A0
:1039900001D8BB4200D9032095F81D1321B101299C
:1039A0001AD002292DD00DE004F00301022907D01E
:1039B000A50709D001290AD0E143890707D001E012
:1039C000BB4200D90320F0BD402BFBD8F0BD002A3C
:1039D000F8D0102AF6D8F0BD04F003010229F3D084
:1039E000A507F1D0012907D0E1438907EAD1002AD0
:1039F000E8D0B342E6D2F0BD002AE3D0102AE3D9E2
:103A0000E0E7A10707D0E1438907DBD1002AD9D03D
:103A1000082BD7D8F0BD082BD4D1F0BDFEB50221BC
:103A200004468DF8001094F821230020012A01D1CA
:103A30000322227022780D26082700250C2A17D28F
:103A4000DFE802F0061734E81669CC7C848CA2E12A
:103A500094F8200300280BD001202070C820FFF725
:103A600061FB2046FFF756FE84F81C53C4F8C85388
:103A7000EAE094F8230301280DD0D4F8C803B0F588
:103A80007A7F0CD994F81F03401CC0B284F81F033E
:103A9000032878D875E084F81F532170D4E00A30E9
:103AA000C4F8C8030A20FFF73DFBCDE0D4F8D423C7
:103AB00012B10421204690476420FFF733FB2046D3
:103AC000FFF7C5FD84F81D03052020700021204666
:103AD000FFF741F9607180212046FFF73CF9207122
:103AE0000146A07994F81D230092CDE9015094F885
:103AF0001C3380222046FFF74BFEA07994F81D135B
:103B00000091CDE9015094F81C33617900222046E0
:103B1000FFF73EFE98E02046FFF78AFC8DF8000094
:103B20009DF80000002808D184F8245394F8370346
:103B3000012801D0072062E0277085E0D4F8D42363
:103B4000002A46D0012120469047F5E794F83D131E
:103B5000204600F0A8F8E0BB092050E094F83F03AD
:103B60004FF00A0580060CD50121204600F0A9F887
:103B70008DF800009DF8000018B19DF800000328A2
:103B800062D1257060E03CE0D4F8801309B3C4F83A
:103B90007C5394F8471300BF04EB8002D2F87823DB
:103BA00012798A4206D104EB8000D0F87803C4F879
:103BB0007C0304E0401C10F0FF00EDD0284600B369
:103BC000816820468847E0B90620207003212046FE
:103BD00000E039E0D4F8D423904735E0D4F87C03F2
:103BE00078B10169204688478DF800009DF80000F3
:103BF00020B19DF80000022803D025E00B202070A2
:103C000022E0267020E0D4F87C03E8B14169204628
:103C1000884719E084F821532046FCF7ACFDD4F81E
:103C20007C0320B1C16820468847C4F87C53D4F88F
:103C3000D42312B105212046904794F8220301288D
:103C400004D02046FFF781FD0020FEBD84F82253FA
:103C5000204600F044F8F7E7002211B1D0F8803395
:103C600013B10222104670470123C0F88033C0F818
:103C70007813F7E70246002092F83C338B4202D9D2
:103C800082F824137047022070478278012A06D1F7
:103C9000002202740523437441828282C282002280
:103CA0001146FFF7FFB98278012A06D1002202747B
:103CB0000923437441828282C28200221146FFF7A7
:103CC000F1B98278012A06D10022027403234374D9
:103CD00041828282C28200221146FFF7E3B910B509
:103CE0000446FFF732FD01212046FFF79FFC00202C
:103CF00010BD000001290AD00548022906D0042978
:103D000003D0052903D1032100E001210170704790
:103D10000000002070B50D460446C2F30721049848
:103D20001E4601291BD0E06840F04000E0602046BC
:103D300000F032F8C6F307210029A16B26D021F448
:103D40008031A163C5F30741012907D1A16841F082
:103D50000601A160A16841F02001A16070BDA16BC6
:103D600021F48031A163E1680A4A1140E160E16811
:103D700021F44011E160C0B2012803D1E06840F4B1
:103D80008010E060204600F007F8DBE741F4803166
:103D9000D7E70000BFFFBDFF08B500214FF07062FC
:103DA0000091009B5B1C009393420CD80369002B8D
:103DB000F7DA0091016941F0010101610099491CA4
:103DC0000091914201D9032008BD0169C907F5D1CD
:103DD000002008BD816821F001018160002070474A
:103DE00000EB4110064AC0F81025D0F8001521F06C
:103DF000804141F00041C0F80015002070470000EC
:103E00000000088008B5D0F8402422F02E0200926D
:103E1000D20405D4012909D1009941F4805103E06D
:103E200021B9009921F48051C0F84014002008BD48
:103E3000816841F0010181600020704708B50021D0
:103E40004FF070620091009B5B1C009393420AD874
:103E50000369002BF7DA0091102101610099491CD8
:103E60000091914201D9032008BD0169C906F5D42A
:103E7000002008BD18B500224FF070630092009C2E
:103E8000641C00949C420CD80469002CF7DA009260
:103E9000202242EA811101610099491C0091994256
:103EA00001D9032018BD01698906F5D4002018BD89
:103EB000D0F8080480B2704708B5D0F840040090EC
:103EC000C0F3414008BD406900F00100704738B5BB
:103ED000002200EB41110092D1F80025D1F8003505
:103EE000C2F38142D1F80445DB0F8568E40FAD06CB
:103EF00005D524B93BB3012A25D0032A23D04FF49A
:103F00007A736AB1022A0BD0D1F8002542F08042C0
:103F1000C1F80025D0F8100410F47F0F2BD00CE06E
:103F2000D1F8002542F08042C1F80025826892064F
:103F300003D4C06A10F47F0F07D0D1F8000540F019
:103F40000040C1F80005002038BDD1F8000520F080
:103F50000040C1F80005D1F8000540F00040C1F86C
:103F600000050098401C00909842ECD8D1F800055C
:103F70000028F6DBE7E7D1F8000520F00040C1F8A3
:103F80000005D1F8000540F00040C1F80005009898
:103F9000401C00909842D6D8D1F800050028F6DBE6
:103FA000D1E700002DE9F0431E46DDE90785002733
:103FB00000EB41147B1EDDF82490C4F8083515B3DE
:103FC000012D3CD0022D1ED0032D31D0012700231E
:103FD000C4F80435D4F80C3543F00203C4F80C35AA
:103FE000D0F8183401F00F0C012101FA0CF10B4349
:103FF000C0F81834816941F00071816111062BD538
:104000004FF4004129E040F29D43C4F80C351306FB
:1040100005D500BFD4F80C3543F4807319E0DFF800
:1040200098C06045D3D1D4F80C3543F0600310E05C
:1040300040F29D63C4F80C351306EBD4C7E740F299
:104040002523C4F80C351306C1D5D4F80C3543F438
:10405000C073C4F80C35BAE70021FFF72DFFB8F1A3
:10406000020F04D1022802D04FF4003000E00020FB
:104070004FF0FE5303EA86534FF4F04606EAC2229D
:1040800013434FF4402202EA85421343C9F30A0264
:1040900013430B43034343F48010C4F80005032D7E
:1040A00001D0012D05D1D4F8000540F00050C4F82E
:1040B00000053846BDE8F08300000440D0F8140441
:1040C00080B27047F8B5964D4C784FF48073A84293
:1040D00016D1012A02D00D797DB111E08D7C0DB190
:1040E000022D0DD18D795DB900EB4415D5F80C6525
:1040F00026F07006C5F80C6502E04D79012D10D050
:104100008D79012D11D00E6A96B38D8A77197F1E95
:10411000B7FBF5F7BFB29F4235D91F462B02CB61E3
:1041200031E02146FFF75CFEF7E0CB7801270BB1C9
:104130008B8A25E08B7C012B02D0012A1BD01EE04C
:104140000B6ABC2B0CD98B8ACB610B62CB68012B21
:1041500004D0022B02D00123CB601AE00223FBE73C
:10416000CB61CB68012B04D0022B02D00423F3E7F0
:1041700008E00323F0E78B8A0D6A9D4200D80B6AA2
:10418000CB6106E00127CB7813B18B8A7B43F7E73D
:10419000CE61CB694FF0C046C3F312056FF06043A8
:1041A00003EAC7431D438B7D06EA43731D4300EBBF
:1041B0004413C3F8105512B18C69C3F81445D0F8F4
:1041C0000844D3F8005544F3000425F00055C3F823
:1041D0000055D3F80055641C45EA4474C3F8004503
:1041E0008D790024012D0DD0C3F80445D3F8005576
:1041F00025F080450095CD78002D009D58D045F4E0
:10420000004557E04E7C0D7C4FF0004747EAC6164C
:104210003543C3F80455D3F80C5545F06005C3F891
:104220000C55CD79012D0DD1CD785DB9D3F804555C
:1042300045F48035C3F80455D3F80C5545F04005D6
:10424000C3F80C558D7C012D01D0032DCED1CD7935
:10425000012D08D1CD78012D05D1D3F8045545F4B1
:104260008035C3F804558D7C012DBFD1CD78002D4C
:10427000BCD1CD68012D0CD0022D0FD0032D12D052
:10428000042DB3D1D3F8045545F44045C3F8045583
:10429000ACE7D3F8045545F40045F7E7D3F80455E7
:1042A00045F00E05F2E7D3F8045545F48045EDE7F7
:1042B00025F4004545F000450095C3F8005562BB64
:1042C000CA7852BB0A6A42B3CB7933BB8B7C33B119
:1042D000012B0FD0022B02D0032B17D10AE0D21CE6
:1042E000C36AC2F38F029BB293420FD2826942F03B
:1042F00020020AE0D21CD0F81034C2F38F029BB225
:10430000934203D2826942F08062826100940A8CF7
:1043100093B24A78896900F041F90020F8BD0000A5
:1043200000000440F0B500250E4604462F46C0F8B4
:10433000005E806B40F40010A063A06B20F40020AE
:10434000A063A06B20F48020A063E068400602D444
:10435000300E012804D0D4F8000420F0040103E05A
:10436000D4F8000440F004012046C4F800141021E1
:10437000FFF780FD00B101252046FFF75FFD00B18A
:1043800001250020411EC6F3072206E004EB40137E
:10439000C3F80815C3F80C75401C8242F6D8A76113
:1043A00061610E48844205D1401560620C48A062EC
:1043B0000C4804E0802060620B48A0620B48C4F8FF
:1043C0000001C6F3074018B9A06940F01000A061D1
:1043D000A06907490843A0612846F0BD00000440D9
:1043E000000200010003E00080006000E0004000E7
:1043F000080020A3D0F8002422F00302C0F8002413
:10440000D0F8002401F003031A43C0F80024012966
:1044100003D0022904D0012070474BF6803101E01F
:1044200041F27071C0F804140020704700EB411095
:10443000D0F80815D0F80C0508407047416980692C
:104440000840704730B503460846940802F003015F
:10445000002203F5805303E01D6840F8045B521C02
:10446000A242F9D300290BD01C680022D50024FAFF
:1044700005F3491E521C090400F8013B090CF5D153
:1044800030BD38B50446D0F8400420F02E0000902E
:1044900040F48070C4F84004642004F58864FCF79C
:1044A000B5F9009820F4807020600A20FCF7AEF97E
:1044B000002038BD70B50446C068002520F0C0401B
:1044C000E060012901D079B120E0E06840F00050BF
:1044D000E0600A20FCF79AF960690A3510F0010FD4
:1044E00010D1C82DF5D30DE0E06840F08040E060C9
:1044F0000A20FCF78BF960690A3510F0010F01D032
:10450000C82DF5D3C82D01D0002070BD012070BD8D
:1045100038B5002504460095806820F00100A060B1
:1045200010212046FFF7A6FC00B101252046FFF729
:1045300085FC00B10125002004EB4011D1F80025D5
:1045400022F0802242F08042C1F80025401C0F2852
:10455000F2D900204FF47A7304EB4011D1F8002512
:1045600022F4004242F04042C1F80025009A521C59
:1045700000929A4203D8D1F80025002AF6DB401CAD
:104580000F28E9D94FF0FF30C4F814046061A06827
:1045900040F00100A060284638BD000010B5029C24
:1045A00074B9DB1C9C0800EB0230002300F580503E
:1045B00004E000BF51F8042B02605B1CA342F9D356
:1045C000002010BDFEE70907090E002804DB00F1FA
:1045D000E02080F80014704700F00F0000F1E020A8
:1045E00080F8141D70470000FCF76AFFFEF7BAFA66
:1045F000FEF790F91B481A49002401601A49C0E9E6
:1046000001144FF48041C0E9034144618461C461F5
:104610000462FCF743FC08B172B6FEE71148134987
:10462000543001604915C0E90114C0E90341104943
:10463000C0E90514C4610462FCF726FE08B172B635
:10464000FEE7FEF717FAFEF735FAFEF759FA0548C6
:10465000F430FDF70FFC00BFFEF772FAFCE7000034
:104660000054004034000020A0860100003C0040BF
:10467000007701004FF04070E1EE100A7047000033
:104680000000000000000102030406070809000002
:10469000000001020304000043444300BC4600083C
:1046A0000000002034000000C4010008F0460008AB
:1046B00034000020540F0000E0010008000000005A
:1046C0000100000010000000000000000024F400C1
:1046D0009846000802000000592E0008FB2D000833
:1046E000D72D00089F2F0008593000080000000057
:040000050800018965
:00000001FF
