:020000040800F2
:100000007006002029020008C10E0008BD0E00087D
:10001000BF0E00081F0400082D0F0008000000009C
:10002000000000000000000000000000C50E0008F5
:100030002104000800000000C30E0008C70E0008DD
:10004000430200084302000843020008430200087C
:10005000430200084302000843020008430200086C
:10006000430200084302000843020008430200085C
:10007000430200084302000843020008430200084C
:10008000430200084302000843020008430200083C
:10009000430200084302000843020008430200082C
:1000A000430200084302000843020008430200081C
:1000B000430200084302000843020008430200080C
:1000C00043020008430200084302000843020008FC
:1000D00043020008430200084302000843020008EC
:1000E00043020008430200084302000843020008DC
:1000F00043020008430200084302000843020008CC
:1001000000000000000000000000000043020008A2
:1001100043020008430200084302000843020008AB
:10012000430200084302000843020008430200089B
:100130004302000843020008000000000000000025
:1001400043020008430200084302000800000000C8
:10015000000000000000000000000000000000009F
:1001600000000000000000004302000843020008F5
:100170004302000800000000000000000000000032
:10018000000000004302000800F002F800F03CF814
:100190000AA090E8000C82448344AAF10107DA45E2
:1001A00001D100F031F8AFF2090EBAE80F0013F0F8
:1001B000010F18BFFB1A43F0010318475C0E000043
:1001C0007C0E0000103A24BF78C878C1FAD85207D4
:1001D00024BF30C830C144BF04680C6070470000C1
:1001E0000023002400250026103A28BF78C1FBD840
:1001F000520728BF30C148BF0B6070471FB500F0E1
:10020000EDFE1FBD10B510BD00F0CFF81146FFF791
:10021000F5FF00F09DFE00F0EDF803B4FFF7F2FFEC
:1002200003BC00F0F5F80000094880470948004782
:10023000FEE7FEE7FEE7FEE7FEE7FEE7FEE7FEE796
:10024000FEE7FEE704480549054A064B70470000F3
:100250001D0F0008890100087000002070060020B2
:10026000700200207002002053EA020C00F0698046
:100270002DE9F04B4FF00006002B1FBFB3FA83F5BA
:1002800003FA05F424FA05F65E4012BF1643B2FAEB
:1002900082F502FA05F4C5F120051EBF22FA05FC1D
:1002A00044EA0C04203556EA044C4FEA144418BFC3
:1002B000641C4FF000084FF00009904271EB030CF2
:1002C00039D3002919BFB1FA81F701FA07F6B0FA5C
:1002D00080F700FA07F6C7F120071EBF20FA07FCD7
:1002E00046EA0C062037B6FBF4FCA7EB0507103FE7
:1002F00007F01F0BCBF120060CFA0BFB2CFA06F6CD
:1003000044BFB3460026202FA4BF5E464FF0000B2B
:100310005BEA060C08BF4FF0010B19EB0B09ABFBB6
:10032000027C48EB0608C01B06FB02CC0BFB03CC8F
:1003300071EB0C01C1E70B46024641464846BDE859
:10034000F08B13B54FF000004FF00001AFF30080C9
:10035000BDE81C4070474FF0000200B513469446BC
:100360009646203922BFA0E80C50A0E80C50B1F10D
:100370002001BFF4F7AF090728BFA0E80C5048BF21
:100380000CC05DF804EB890028BF40F8042B08BFBF
:10039000704748BF20F8022B11F0804F18BF00F8BB
:1003A000012B7047704770477047754600F02CF876
:1003B000AE4605006946534620F00700854618B052
:1003C00020B5FFF73FFFBDE820404FF000064FF09B
:1003D00000074FF000084FF0000B21F00701AC467A
:1003E000ACE8C009ACE8C009ACE8C009ACE8C00999
:1003F0008D46704710B50446AFF300802046BDE837
:100400001040FFF70ABF00000048704710000020AE
:1004100001491820ABBEFEE7260002007047FEE748
:10042000704700002DE9F04FDFF8AC910023032561
:10043000A9F1040B85B04FF0010C0F2709F1040A54
:10044000ABF1040EBFE000BF0CFA03F6324075D0EA
:100450000C7904F00304012C01D0022C1BD1846818
:1004600000945C0005FA04F80494009C24EA080453
:100470000094D1F80C80049C08FA04F8009C48EA27
:100480000408C0F808804468B4430E79C6F3001627
:100490009E40264346600C79E443A4070AD0C46812
:1004A0004FEA430805FA08F6B4438E6806FA08F6E0
:1004B0002643C6600C7904F00304022C10D1DC083A
:1004C00000EB84040294246A5E074FEAD66807FAB8
:1004D00008F6B4430E6906FA08F62643029C266223
:1004E00004684FEA430805FA08F6B4430E7906F0AB
:1004F000030606FA08F6264306604C6814F4403FEB
:1005000060D0364CA66946F00106A661A46923F0C6
:10051000030604F001040094314C34440294A468AE
:100520009E074FEA167807FA08F6B443B0F1904FE9
:1005300005D02C4EB04204D1012612E042E0002644
:100540000FE0294EB04201D102260AE0274EB04208
:1005500001D1032605E0264EB04201D1042600E079
:10056000052606FA08F62643029CA660D9F8006024
:100570004C46D1F8048096435FEAC82800D516435C
:100580002660DAF800405646D1F8048094435FEACA
:10059000882800D514433460DBF800405E46D1F86B
:1005A000048094435FEA883800D514433460DEF851
:1005B00000407646D1F8048094435FEAC83800D5FD
:1005C000144334605B1C0A6832FA03F47FF43CAFD6
:1005D00005B0BDE8F08F00000804014000100240A3
:1005E000000001400004004800080048000C0048DA
:1005F000001000480069084000D0012070470AB18F
:1006000081617047816270470148806870470000CF
:100610000000002002488168027811448160704720
:1006200000000020074810B5016841F0100101608A
:10063000032000F05FF80F2000F006F800F024F827
:10064000002010BD0020024070B50D4D04464FF44F
:100650007A712878B1FBF0F00A490968B1FBF0F033
:1006600000F018FC48B9102C07D200222146501E79
:1006700000F020F800206C6070BD012070BD00000B
:10068000000000200C000020094808B5816941F0F5
:1006900001018161816901F001010091C16941F0AD
:1006A0008051C161C06900F08050009008BD000019
:1006B00000100240F0B40E4B1B680C46C3F302233B
:1006C000C3F10705042D00D90425191D072901D2FE
:1006D000002300E0DB1E012606FA05F1491E214039
:1006E00099409E40761E16403143F0BC00F01FBC7E
:1006F0000CED00E0064900F0070208684FF6FF0322
:10070000184040EA0220034A104308607047000086
:100710000CED00E00000FA052DE9F0470F4605005A
:1007200069D04A4E306800F00700B84209D23068FC
:1007300020F0070038433060306800F00700B8420E
:1007400059D12878424C800705D56068A96820F007
:10075000F000084360602878C0073DD06968012038
:1007600001290DD0022923D05FF0020393FAA3F2EE
:10077000B2FA82F242F02002520904D0226803E069
:100780004FF40033F2E7626A93FAA3F3B3FA83F308
:1007900003F01F03984002422DD0606820F0030050
:1007A00008436060FFF730FF804641F288390CE073
:1007B0004FF00073DAE700BFFFF726FFA0EB080158
:1007C000494502D90320BDE8F0876068696800F0F8
:1007D0000C00B0EB810FEFD1306800F00700B84299
:1007E0000BD9306820F0070038433060306800F0E3
:1007F0000700B84201D00120E5E72878400705D579
:100800006068E96820F4E0600843606028780007C9
:1008100006D56068296920F4605040EAC100606034
:1008200000F01EF86168F02292FAA2F201F0F001E5
:10083000B2FA82F2D140074A515CC84006490860CA
:1008400006480068FFF700FF0020BCE700200240D8
:1008500000100240061000080C00002004000020D8
:10086000164A10B55168164801F00C03042B20D02D
:10087000082B1ED14FF4701494FAA4F401F47013F1
:10088000B4FA84F4E3400F4CD26AE45C0F2393FA89
:10089000A3F302F00F02B3FA83F3DA40094B1033EB
:1008A000C9039A5C06D500231946FFF7DDFCA0FBBF
:1008B000040110BD0448A4FB000110BD001002405B
:1008C00000127A00E60F000800093D002DE9F84FFC
:1008D000050071D02878FC4EC0074FF0010425D0E8
:1008E00070686704C0F38100012807D07068C0F306
:1008F000810002281BD17068C00318D597FAA7F0B1
:10090000B0FA80F040F02000400901D0306800E0EB
:10091000706A97FAA7F1B1FA81F101F01F0104FAA8
:1009200001F1084265D068680028D2D061E06868AB
:10093000B0F5803F0BD010B1B0F5A02F17D03068C4
:1009400020F480303060306820F4802002E030688D
:1009500040F480303060F06AA96820F00F0008434E
:10096000F062686820B3FFF74FFE80460AE0306807
:1009700040F480203060EAE7FFF746FEA0EB080075
:10098000642871D897FAA7F0B0FA80F040F0200000
:10099000400901D0306800E0706A97FAA7F1B1FA17
:1009A00081F101F01F0104FA01F10842E4D020E0D6
:1009B000FFF72AFE804607E0C2E000BFFFF724FEF3
:1009C000A0EB08006428DCD897FAA7F0B0FA80F012
:1009D00040F02000400901D0306800E0706A97FACA
:1009E000A7F1B1FA81F101F01F0104FA01F1084207
:1009F000E4D12878DFF8D48280074FF0000A4FF066
:100A0000020730D570684FF0F80B10F00C0F07D0CC
:100A10007068C0F38100022827D17068C00324D415
:100A200097FAA7F0B0FA80F040F02000400901D01A
:100A3000306800E0706A97FAA7F1B1FA81F101F02D
:100A40001F0104FA01F1084202D02869012877D178
:100A500030689BFAABF220F0F8016869B2FA82F2D2
:100A60009040014331605AE064E1286988B394FA08
:100A7000A4F0B0FA80F048F82040FFF7C5FD8146A9
:100A800006E000BFFFF7C0FDA0EB090002289AD8DE
:100A900097FAA7F0B0FA80F040F02000400901D0AA
:100AA000306800E0706A97FAA7F1B1FA81F101F0BD
:100AB0001F0104FA01F10842E4D030689BFAABF25E
:100AC0006969B2FA82F220F0F80091400843306080
:100AD00025E0FFE794FAA4F0B0FA80F048F820A0EF
:100AE000FFF792FD814605E0FFF78EFDA0EB0900C0
:100AF0000228CCD897FAA7F0B0FA80F040F0200096
:100B0000400901D0306800E0706A97FAA7F1B1FAA5
:100B100081F101F01F0104FA01F10842E4D12878C3
:100B200000076CD5A869A8B394FAA4F0B0FA80F0D5
:100B300008EB8000C0F88044FFF766FD814607E0BF
:100B4000A4E100BFFFF760FDA0EB090002289ED8DA
:100B500097FAA7F0B0FA80F040F06000B4EB501FB5
:100B600001D130680BE097FAA7F0B0FA80F040F0BE
:100B70006000B7EB501F01D1306A00E0706A97FA4D
:100B8000A7F1B1FA81F101F01F0104FA01F210425C
:100B9000D8D034E0FFE794FAA4F1B1FA81F108EB80
:100BA0008101C1F880A4FFF72FFD814606E000BF58
:100BB000FFF72AFDA0EB090002289AD897FAA7F0C0
:100BC000B0FA80F040F06000B4EB501F01D1306803
:100BD0000BE097FAA7F0B0FA80F040F06000B7EBB6
:100BE000501F01D1306A00E0706A97FAA7F1B1FA9C
:100BF00081F101F01F0104FA01F21042D8D12878E6
:100C0000400768D5F0694FF00009C00009D4F069C9
:100C100040F08050F061F0694FF0010900F0805021
:100C200000902B480168C90512D4016841F4807115
:100C30000160FFF7E9FC834606E000BFFFF7E4FC34
:100C4000A0EB0B00642875D821480068C005F5D5D5
:100C5000E86801280AD008B1052811D0306A20F0D0
:100C600001003062306A20F0040002E0306A40F097
:100C700001003062E86868B3FFF7C6FC83460DE008
:100C8000306A40F004003062F0E700BFFFF7BCFCC0
:100C9000A0EB0B0141F2883081424BD897FAA7F0C4
:100CA000B0FA80F040F04000B4EB501F01D1306842
:100CB00013E097FAA7F0B0FA80F040F04000B7EBED
:100CC000501F09D1306A08E0001002400000424283
:100CD000007000400CE040E0706A97FAA7F1B1FAAA
:100CE00081F101F01F0104FA01F21042CED02DE093
:100CF000FFF78AFC834607E0FFF786FCA0EB0B01B9
:100D000041F28830814215D897FAA7F0B0FA80F006
:100D100040F04000B4EB501F01D130680CE097FA6E
:100D2000A7F0B0FA80F040F04000B7EB501F02D1BE
:100D3000306A01E083E0706A97FAA7F1B1FA81F1B5
:100D400001F01F0104FA01F21042D5D1B9F1000FF0
:100D500003D0F06920F08050F061E86980B37168D9
:100D6000C1F38101022977D04FF080714F00022832
:100D7000504609D091FAA1F1B1FA81F148F8210069
:100D8000FFF742FC05465DE0894691FAA1F1B1FA10
:100D900081F1C24648F82100FFF736FC804605E0A5
:100DA000FFF732FCA0EB0800022848D897FAA7F01A
:100DB000B0FA80F040F02000400902D0306801E035
:100DC00066E0706A97FAA7F1B1FA81F101F01F01AC
:100DD00004FA01F10842E3D1D5E90810084371682B
:100DE00021F474110843706099FAA9F0B0FA80F008
:100DF0004AF82040FFF708FC054604E0FFF704FC32
:100E0000401B02281BD897FAA7F0B0FA80F040F0F8
:100E10002000400901D0306800E0706A97FAA7F11D
:100E2000B1FA81F101F01F0104FA01F10842E5D0A5
:100E30002EE000BFFFF7E8FB401B022802D9032089
:100E4000BDE8F88F97FAA7F0B0FA80F040F02000E4
:100E5000400902D0306801E00BE0706A97FAA7F110
:100E6000B1FA81F101F01F0104FA01F10842E1D168
:100E70000EE00128E4D070682A6A00F480319142C3
:100E800004D1696A00F47010884201D00120D7E7CC
:100E90000020D5E710B5401EB0F1807F01D30120BE
:100EA00010BD4FF0E02460610F21601700F03FF8A3
:100EB0000020A06107202061002010BDFEE7FEE7B2
:100EC000FEE770477047FFF7A5BB10B590B028212B
:100ED0006846FFF740FA14210AA8FFF73CFA0220FF
:100EE000009001200490102000240590079468468B
:100EF000FFF7ECFC08B172B6FEE70F20CDE90A045B
:100F00000C940D9400210AA80E94FFF705FC00280C
:100F100001D072B6FEE710B010BD000002480168B3
:100F200041F470010160704788ED00E0FEE70907B9
:100F3000090E002804DB00F1E02080F8001470475F
:100F400000F00F0000F1E02080F8141D7047000051
:100F50008CB0FFF767FBFFF7B8FF1E48416941F40B
:100F600000314161416901F400310A91416941F464
:100F700000114161416901F400110A91416941F494
:100F8000003141614069022600F400300A900020DF
:100F9000CDE9060601244FF0904505A9089428469E
:100FA000FFF740FACDE9026401940B4E2402694632
:100FB00030460094FFF736FA01212846FFF71AFB66
:100FC000012805D0002221463046FFF718FBF3E741
:100FD0000122F8E700100240001000484FF0407076
:100FE000E1EE100A704702030405060708090A0B20
:100FF0000C0D0E0F10100102030405060708090A64
:101000000B0C0D0E0F10000000000000000001028C
:10101000030406070809000038100008000000203B
:1010200010000000C4010008481000081000002053
:1010300060060000E0010008010000001000000050
:081040000000000000127A001C
:040000050800018965
:00000001FF
